:100000000C94BE020C9405030C9405030C94050398
:100010000C9405030C9405030C9405030C94050340
:100020000C9405030C9405030C948E270C94602803
:100030000C94F01D0C9405030C9405030C9405031B
:100040000C9405030C9405030C9405030C94050310
:100050000C9405030C94581E0C9405030C94050392
:100060000C9405030C9405030C9405030C940503F0
:100070000C9405030C9405030C9405030C940503E0
:100080000C9405030C9405030C9405030C940503D0
:100090000C9405030C9405030C9405030C940503C0
:1000A0000C9405030C9405030C94050342044404CA
:1000B0004F04460448044A044C044E0451045304BB
:1000C00055046004570459045B045D045F04620432
:1000D000EA13EA131C141C145A147A140F160F1680
:1000E000BC140F1669156915DB15E4150F160816F3
:1000F00076157615761576157615761576157615A8
:100100007615761576157615761576157615761597
:10011000871595159C15A315AD159E169E16B01640
:10012000B016A716B016B016B0169E169E16AC16D0
:10013000B016B016AC16CD28F428E629F428E62926
:1001400040296329E629B929C82907634236B79BA4
:10015000D8A71A39685618AEBAAB558C1D3CB7CC27
:100160005763BD6DEDFD753EF6177231BF0000009F
:10017000803F05A84CCDB2D44EB93836A9020C50F8
:10018000B9918688083CA6AAAA2ABE000000803F32
:10019000155C1E001F002000210022002300240007
:1001A0002500260027002D002E002A002A002B0003
:1001B000000014001A000800150017001C001800A9
:1001C0000C00120013002F0030003100015100001C
:1001D00004001600070009000A000B000D000E00C5
:1001E0000F003300340028000000E100E1001D0092
:1001F0001B00060019000500110010003600370032
:1002000038004A0052004C00E000E3000000E20029
:100210002C0000002C0000002C000000E600E7008D
:10022000500051004F0035003A003B003C003D00BB
:100230003E003F00400041004200430044004500B2
:1002400000000000000000004B0000000000005C07
:10025000000000000000000000000000000000009E
:100260000000010000004E000000000000004A00F5
:100270000000000000000000490000000000000035
:1002800000000000000000000000000000004D0021
:10029000000000000000C05CC35CC55CC75C0000DF
:1002A000000000000000000000000000000000004E
:1002B00000000000C15CC45CC65CC85C000468014E
:1002C000F000B40078005A007F3F1F64321464329B
:1002D00014783C1E1E140A050000000000010101F4
:1002E00001010101010102020202020202020203F3
:1002F00003030303030303040404040404050505C2
:100300000505060606060607070707080808080980
:1003100009090A0A0A0A0B0B0B0C0C0C0D0D0D0E29
:100320000E0F0F0F101011111112121313141415B8
:100330001516161717181819191A1A1B1C1C1D1D2B
:100340001E1F1F202021222223242525262727287F
:10035000292A2B2B2C2D2E2F2F30313233343536AA
:10036000363738393A3B3C3D3E3F404142434446B4
:100370004748494A4B4C4D4F505152535556575888
:100380005A5B5C5E5F606263646667696A6C6D6E2F
:10039000707173747678797B7C7E808183848688A3
:1003A0008A8B8D8F91929496989A9B9D9FA1A3A5DD
:1003B000A7A9ABADAFB1B3B5B7B9BBBDBFC1C4C6DB
:1003C000C8CACCCFD1D3D6D8DADCDFE1E4E6E8EB9B
:1003D000EDF0F2F5F7FAFCFF0403300000000A0329
:1003E00044005A0036003000000010034B00420069
:1003F0004400460061006E0073000000040309041D
:1004000009026D00040100A0FA09040000010301C3
:1004100001000921110100012240000705810308A4
:10042000000A090401000103010200092111010071
:1004300001224D000705820308000A090402000199
:100440000300000009211101000122360007058385
:100450000308000A09040300010300000009211138
:100460000100012239000705840320000112011058
:100470000100000008EDFE602201000102030105F9
:10048000010906A101050719E029E71500250195D5
:100490000875018102050819012905950575019165
:1004A000029501750391010507190029F71500252B
:1004B0000195F875018102C005010980A10185023D
:1004C0001601002603001A81002A83007510950189
:1004D0008100C0050C0901A1018503160100269CBD
:1004E000021A01002A9C02751095018100C00501C5
:1004F0000902A1010901A100050919012905150039
:10050000250195057501810295017503810105019C
:10051000093009311581257F950275088106093852
:100520001581257F950175088106050C0A3802158D
:1005300081257F950175088106C0C005010906A1C6
:1005400001050719E029E7150025019508750181C6
:1005500002950175088101050819012905950575A0
:100560000191029501750391010507190029FF15F5
:100570000026FF00950675088100C00011241FBEEB
:10058000CFEFDAE0DEBFCDBF04B603FE27C0809117
:10059000AA029091AB02A091AC02B091AD0287305B
:1005A000904BA740B04BD1F41092AA021092AB022C
:1005B0001092AC021092AD0214BE84B7877F84BF44
:1005C0000FB6F894A89580916000886180936000D0
:1005D000109260000FBEE0E0F8E3099511E0A0E0A2
:1005E000B1E0EEE4FCE502C005900D92AE33B10738
:1005F000D9F722E0AEE3B1E001C01D92AA3AB207FA
:10060000E1F70E94B3240C94252E0C9400000C9466
:100610002D09229A2A9A08950E942C090C94090304
:1006200081FF02C0229A01C022982A980C9490035C
:1006300081E0089581E008950C941A030C94070357
:10064000CF92DF92EF92FF92863030F4811105C095
:10065000909180009F7D04C085E090918000906221
:1006600090938000282F30E0AFEFBFEF0E94C32DA2
:1006700025E030E040E050E00E949B2D2C3784E1E3
:1006800038074105510530F4C90169E070E00E9466
:10069000732D29C0DA01C9018A50974DAF4FBF4F62
:1006A0006627782F892F9A2F25EF38E241E050E016
:1006B0000E949B2D69017A01CA01B9010E94632D34
:1006C0009B01AC01C701B6010E94632DBB27A92F76
:1006D000982F872F009721E0A207B10511F0BC01E8
:1006E00002C06FEF7FEF70938B0060938A00FF90E2
:1006F000EF90DF90CF900895269A2E9882E2809313
:10070000800089E1809381008FEF9FEF90938700B5
:10071000809386000C9438220E947C030C940C0376
:1007200008950C94100308950E948C160E94930360
:100730002FEF84E39CE0215080409040E1F700C01F
:1007400000000C947E1EFF920F931F93CF93DF93B4
:100750008C01FC01C081D18180919901811113C06C
:100760008281882349F0CE010E94BC1BF82E682F9D
:10077000CE010E94611B04C0CE010E94901BF82E86
:10078000BE018F2D04C0CE010E94BC1BBE010E9481
:100790004706EC01B8010E941C03882309F46CC2CF
:1007A000B801CE010E94DD08882309F465C2C93C66
:1007B000FCE5DF0741F4F8018281882309F45CC27B
:1007C0000E94D00A59C2CA3C8CE5D80708F013C170
:1007D000C13C9CE5D90761F4F8018281882309F4C2
:1007E0004BC20E948D1C8272F1F00E94FD0C44C22B
:1007F000C23CECE5DE07D0F0F8018281C53CFCE5A7
:10080000DF0709F4CDC008F0DDC0C33CECE5DE072E
:1008100009F4CCC008F0D0C0882309F42DC20E948E
:100820008D1C827211F30E94F30C26C2C531FCE5C7
:10083000DF0708F07EC0C2308CE5D80708F452C04C
:10084000F8018281882309F459C00E94EF1C8111AC
:1008500002C00E94C91C0E940C1D90E090939B0254
:1008600080939A02FE01E350FC45E231F10530F439
:10087000EA5AFF4F80919A020C94BD2D80919A0202
:10088000816027C0826025C0846023C0806121C050
:1008900080621FC080641DC080681BC08460886047
:1008A00018C08E7F16C08D7F14C08B7F12C08F7EC4
:1008B00010C08F7D0EC08F7B0CC08F770AC08B7FDE
:1008C000877F07C087FB222720F991E0922790FBC2
:1008D00087F980939A0280919A020E94101D0E94CB
:1008E0008C16CAC1C1159CE5D90781F0C130DC4521
:1008F000A9F081E08093430180934401C801DF9116
:10090000CF911F910F91FF900C941803F8018281F1
:10091000882309F4B1C10E949403AEC1F801828119
:10092000882309F4A9C1809131028160809331024A
:10093000A3C1C531FCE5DF0739F50E948D1C282FC6
:10094000F80182814091020150910301882379F0DE
:100950002A7A91E009F490E090933E01911102C04F
:1009600069E201C065E3CA010E947A1D0AC0809154
:100970003E01811102C069E201C065E3CA010E9423
:10098000851D0E945A1C78C1C03CDC4509F0B1CFDE
:10099000F8018281882309F46FC10E948E0D6CC119
:1009A000882309F469C10E94360C66C1882309F4C2
:1009B00063C10E94FF0B60C1882309F45DC10E94DE
:1009C000170C5AC1C73C9CE5D90731F4882309F4B8
:1009D00053C10E946B0C50C1C83CDC4530F48823E5
:1009E00009F44AC10E94510C47C1882309F444C14B
:1009F0000E94860C41C1C13DFCE5DF0749F4F801C6
:100A00008281882309F438C188E10E94F00C34C146
:100A1000C23D8CE5D80708F087C0F8018281CD3C43
:100A2000FCE5DF07A1F4882309F426C10E94C20A6D
:100A3000663071058105910540F00E94C20A683058
:100A400071058105910508F4EECE86E0DECFCE3C3F
:100A50009CE5D90730F5CB3CECE5DE0729F488238B
:100A600009F40AC181E0D1CFCC3CDC4530F48823C5
:100A700009F402C10E94E50AFFC0882309F4FCC002
:100A80000E94C20A623071058105910540F00E9402
:100A9000C20A653071058105910508F4C4CE82E073
:100AA000B4CFCF3C9CE5D907A1F4882309F4E4C076
:100AB0000E94C20A6F3071058105910540F00E94C5
:100AC000C20A643171058105910508F4ACCE8FE04E
:100AD0009CCFC03DDC45A0F4882309F4CDC00E9422
:100AE000C20A693071058105910540F00E94C20A71
:100AF0006E3071058105910508F495CE89E085CFAA
:100B0000882309F4B9C00E94C20A653171058105C4
:100B1000910540F00E94C20A673171058105910577
:100B200008F481CE85E171CFC53DFCE5DF0739F5DD
:100B3000F8018281882361F0109244010E94221EF4
:100B4000909342018093410180E20E94A61394C0D9
:100B50008091440181110FC0809141019091420127
:100B60000E942E1E883C910530F487E20E945012AC
:100B700087E20E94471380E20E94AD137DC0C63D0C
:100B80008CE5D80708F043C0F8018281C33DFCE53D
:100B9000DF0729F4882309F46FC083E236CFC43D10
:100BA000DC45A0F4882309F467C00E94C20A6931B9
:100BB00071058105910540F00E94C20A62327105FB
:100BC0008105910508F42FCE89E11FCF882351F0CC
:100BD000109243010E94221E9093400180933F0196
:100BE00082E0B3CF8091430181110FC080913F011A
:100BF000909140010E942E1E883C910530F486E2BF
:100C00000E94501286E20E94471382E0B5CFC93D90
:100C1000ECE5DE0731F4F8018281882369F180E098
:100C200009C0CA3DFCE5DF0741F4F8018281882351
:100C300019F182E00E9451251FC0C63DDC4509F034
:100C400058CEF8018281811177CF809144018111C2
:100C500092CF80914101909142010E942E1E883CCA
:100C6000910508F088CF80E20E94AD1388E20E94CF
:100C7000501288E20E94471380E0DF91CF911F91CC
:100C80000F91FF90089580E090E0089508959FE00F
:100C9000799FF00111249BE4899FE00DF11D11243F
:100CA000E60FF11DEE0FFF1FE057FE4F8591949167
:100CB0000895880F991FFC01E454FD4F859194918C
:100CC0000895CF93DF930E9447060E943C08EC01F1
:100CD000811521E5920708F042C0811530E59307A0
:100CE00008F01EC1883E910500F5803E910508F090
:100CF000BFC1883A910570F4853A910508F09DC00E
:100D00008130910509F4B4C108F46BC1049708F06F
:100D1000AFC167C18D3B910508F49AC0803C910535
:100D200008F45FC1805C9109EBC0811540E3940732
:100D300080F4811550E2950708F0E1C0803F9105ED
:100D400008F44FC18F3F910511F008F091C1D065B3
:100D50008FC1811560E4960708F0DFC0D5C0C115CA
:100D600089E5D80740F5C11528E5D20708F025C167
:100D7000C11534E5D30778F4C11543E5D40708F06D
:100D800001C1C11552E5D50708F0E6C0DC2FCC271C
:100D9000C16FD06A6DC1C11565E5D60708F408C1F9
:100DA000C11586E5D80708F01CC1CF71DD27DC2FFF
:100DB000CC27D0625DC1CB3B2CE5D20709F408C13A
:100DC000D8F4C93B4CE5D40709F4FCC008F0FDC0D9
:100DD000C1156AE5D60708F004C18C2F8F70806EAC
:100DE00090E0906A24E0D695C7952A95E1F7CF70F8
:100DF0009C013C2BE9013CC1CE3B8CE5D80709F4B2
:100E0000EDC060F4CC3B3CE5D30709F4E4C0CD3B36
:100E1000DC4509F0E6C0C0E0D2ED2AC1CE01905613
:100E20008115904208F0DDC08D2F8F710E94B908A6
:100E3000DD27D0628F71D82B1BC1853A910509F44B
:100E4000D3C0863A910509F0D2C0C2E8D0E410C1FF
:100E5000883A910509F4CEC0893A910509F4CDC0CC
:100E60008A3A910509F4CCC08B3A910509F4CBC0BC
:100E70008C3A910509F4CAC08B3B910509F4C9C0AD
:100E80008C3B910509F4C8C08D3A910509F4C7C09F
:100E9000803B910509F4C6C08E3A910509F4C5C09E
:100EA0008F3A910509F4C4C0813B910509F4C3C090
:100EB000823B910509F4C2C0833B910509F4C1C08E
:100EC000843B910509F4C0C0853B910509F4BFC07E
:100ED000863B910509F4BEC0873B910509F4BDC06E
:100EE000883B910509F4BCC0893B910509F4BBC05E
:100EF0008A3B910509F4BAC0C0E0D4E4B9C09F7040
:100F00000E945906EC01B4C09927D3FF03C0EC013D
:100F1000D86CAEC0EC01D06CABC0DF70D06AA8C09A
:100F2000282F237081E090E002C0880F991F2A9536
:100F3000E2F79C689E0174E0369527957A95E1F773
:100F40002370922BCF70C695C69560E2C69FE001D4
:100F50001124C82BD92B8CC02C2F2695269580E2E6
:100F6000289F90011124C370DD2781E090E0AC013F
:100F700002C0440F551FCA95E2F7EA01C22BD32BDA
:100F8000DC6876C02C2F2695269580E2289F90015C
:100F90001124C370DD2781E090E0AC0102C0440F52
:100FA000551FCA95E2F7EA01C22BD32BDA6860C05D
:100FB000DC2FCC27C46FD06A5BC0DC2FCC27C06F7E
:100FC000D06A56C0C0E0D4ED53C0C0E0D5ED50C0EB
:100FD000C0E0D1ED4DC0C0E0D0ED4AC0C0E0D3EDDF
:100FE00047C0C0E0D0E044C0C1E8D0E441C0C3E89D
:100FF000D0E43EC0C2EED4E43BC0C9EED4E438C075
:10100000CAEED4E435C0C5EBD4E432C0C6EBD4E4B8
:101010002FC0C3EBD4E42CC0C4EBD4E429C0C7EB8D
:10102000D4E426C0CCECD4E423C0CDECD4E420C07E
:10103000C3E8D5E41DC0CAE8D5E41AC0C2E9D5E4C6
:1010400017C0C4E9D5E414C0C1E2D6E411C0C3E2BC
:10105000D6E40EC0C4E2D6E40BC0C5E2D6E408C0B4
:10106000C6E2D6E405C0C7E2D6E402C0CAE2D6E4CE
:10107000CE01DF91CF9108958238910549F1B0F406
:101080008133910509F458C048F48932910509F477
:101090004EC08A32910509F454C0089585339105F4
:1010A00009F440C08933910599F00895833E910574
:1010B00029F138F4803E910591F0823E9105A1F02E
:1010C0000895863E9105F9F0873E910531F1089526
:1010D00020919A0220FD3AC021FD38C008958091E8
:1010E0009A0280FD35C032C080919A0282FF32C0E0
:1010F00080919A0284FD30C083EE39C080919A02BB
:1011000082FD28C0F5CF80919A0283FF27C080918D
:101110009A0284FD21C087EE2AC080919A0283FD45
:101120001DC0F5CF80919A0285FD1AC01BC0809129
:101130009A0285FD17C014C080919A0286FD14C0E2
:1011400015C080919A0286FD11C00EC080EE0FC0BE
:1011500089E30DC082EE0BC080E009C086EE07C0B7
:1011600089E205C085E303C08AE201C081E390E023
:10117000089590919A0292FF0DC0282F287128306F
:1011800019F4877F846006C0282F2471243011F45D
:101190008B7F886093FF0DC0282F2871283119F4A8
:1011A000877E846106C0282F2471243111F48B7E40
:1011B000886194FD877E089508950F931F93CF93C0
:1011C000FB012281211102C0C1E041C08C01C0910C
:1011D0005201C11125C086319C45B1F70E94DC083F
:1011E00081E0809352010E94221E909351018093CE
:1011F0005001109245011092470110924601109241
:1012000049011092480110924B0110924A0110922C
:101210004D0110924C0110924F0110924E0117C0D7
:1012200080915001909151010E942E1E8C3291406C
:1012300058F690914501E92FF0E0EE0FFF1FEA5BB1
:10124000FE4F118300839F5F90934501C0E08C2F78
:10125000CF911F910F91089508950895A4E2B1E0F0
:1012600041E050E025E02A0F8D91E82FE295EF70E4
:10127000F0E031A18F70BA0102C0660F771F8A9526
:10128000E2F7CB01962F9095932391A392A1892BFE
:1012900082A32A13E9CFA5E1B1E041E050E02FE0BD
:1012A0002A0F8D91E82FE295EF70F0E031A18F7059
:1012B000BA0102C0660F771F8A95E2F7CB01962F1D
:1012C0009095932391A392A1892B82A32A13E9CF0E
:1012D000EDE5F1E0A3E5B1E0119211921D921D92AE
:1012E00071E0E736F707C1F70C948C032F923F9219
:1012F0005F926F927F928F929F92AF92BF92CF92A6
:10130000DF92EF92FF920F931F93CF93DF9324E22C
:10131000C22E21E0D22E03E511E0E801EE24E39491
:10132000F12C662463945E0188809980198218826A
:10133000D6018D916D01E82FE295EF70F0E021A1CB
:101340008F70A70102C0440F551F8A95E2F7CA01AA
:10135000242B21A322A1742E7094272122A350EACA
:101360005A95F1F795E1292E91E0392E20E030E0F1
:10137000D1017D911D01472F42954F7050E0DA0158
:1013800090965C90488159817F70D70102C0AA0F66
:10139000BB1F7A95E2F7BD01652141F4B701022E2A
:1013A00002C0660F771F0A94E2F702C060E070E0A7
:1013B000462B572B598348832F5F3F4F2F303105E2
:1013C000B9F691A1792271A292A1892B82A32296CA
:1013D000F501808191818816990641F0609267013C
:1013E0000E94221E9093690180936801F1E0CD353F
:1013F000DF0709F098CF809167018823B1F08091D1
:101400006801909169010E942E1E069770F0EDE52B
:10141000F1E0D8018D919D918D0181939193B1E07F
:101420000D351B07B1F7109267010E941E0381E082
:10143000DF91CF911F910F91FF90EF90DF90CF90B0
:10144000BF90AF909F908F907F906F905F903F90F4
:101450002F900895E82FF0E0EE0FFF1FE35AFE4FA4
:101460008081918108950895EF92FF920F931F93C9
:10147000CF93DF93E901662309F44BC0242F30E0BA
:10148000EFEFF0E0E61BF109B901E69F9001E79F5D
:10149000300DF69F300D1124232F8B01031B1109F2
:1014A0005CE3E52EF12CB7010E94732DFB01BC011A
:1014B000069FC001079F900D169F900D1124B70144
:1014C0000E94732DE230F105B1F040F4309779F0CD
:1014D000319711F5832F242F461B21C0E430F105ED
:1014E000A1F068F03597C1F4842F861B18C0832FB4
:1014F000262F230F14C0862F830FE42F03C0E42F61
:10150000E61B842F432F2E2F0AC0842F462F430F14
:1015100006C0842F242F03C080E020E040E0E42FA9
:10152000F0E0E852FD4F4491E22FF0E0E852FD4F29
:101530009491E82FF0E0E852FD4FE49149839883BD
:10154000EA83DF91CF911F910F91FF90EF90089563
:1015500088E090E00C94E52DAB01BC0188E090E0C0
:101560000C94032EEFE5F2E083E08083109260029A
:101570008FEF828383831482608171818281938162
:101580000C94AC0A60915F0260FF06C066956F73B1
:1015900070E080E090E0089560E070E0CB01089595
:1015A0008091630290E001968430910514F083E00D
:1015B00090E08093630260915F027091600280917D
:1015C0006102909162020C94AC0A8091630290E0F7
:1015D000019797FF02C080E090E08430910514F0FD
:1015E00083E090E08093630260915F0270916002FB
:1015F00080916102909162020C94AC0A80915F022A
:1016000080FF06C060E170E084E692E00C94F31085
:1016100080E090E0FC01EC59FD4F118210821282B3
:10162000039680339105B1F7EDCF90915F0290FF63
:101630000FC020E030E0F901EC59FD4F8183608359
:1016400042832D5F3F4F20333105A9F70C94FE0AEA
:101650000895CF93DF9300D01F92CDB7DEB72091CE
:101660005F0220FF0AC09E012F5F3F4F0E94340A95
:101670004B8169818A810E94150B0F900F900F900A
:10168000DF91CF9108955F926F927F928F929F9298
:10169000AF92BF92CF92DF92EF92FF920F931F9380
:1016A000CF93DF9300D01F92CDB7DEB78C01E62E2B
:1016B000F42E522E80915F0280FF8BC0982F9E7770
:1016C000923061F49E012F5F3F4FC8010E94340A9F
:1016D0004B8169818A810E94150B5BC0E82FE695DA
:1016E000EF739EE39E0F9F73943018F4F0906202A4
:1016F00050C09AE39E0F9F73993068F4881F882723
:10170000881F90916002292F220F022F082B97FB30
:10171000112710F93EC087E28E0F8F738A30C8F50B
:10172000F0E07997E0FD02C021E001C02FEFEE7FED
:10173000E254FD4F85919491AC0184E05695479514
:101740008A95E1F724034001259F900C112458014C
:1017500088E9A81A8EEFB80A94E6C92E92E0D92E2D
:1017600028E6622E77247394C501B3010E94732D7D
:1017700096014F2D6E2D0E94340AA80CB91C83E0EF
:10178000C80ED11C84E9C81682E0D80669F70E9409
:10179000FE0A80915F0200FB87F980935F02902F21
:1017A0009695809160028078892B10FB87F9809351
:1017B0006002E0926102F0926202552051F0609165
:1017C0005F027091600280916102909162020E94BA
:1017D000AC0A0F900F900F90DF91CF911F910F9156
:1017E000FF90EF90DF90CF90BF90AF909F908F9041
:1017F0007F906F905F90089521E00C94430BEFE58C
:10180000F2E02081221F2227221F30916002432F05
:10181000440F842F822B37FB992790F9089668E6AE
:1018200071E00E94872D438162810C94FC0B209112
:101830005F02221F2227221F30916002432F440F94
:10184000842F822B37FB992790F9883091051CF45F
:10185000805A9E4F01C0089768E671E00E94872D6C
:1018600040916202609161020C94FC0B60916102F4
:10187000862F90E0883F910514F4685F01C06FEFF8
:1018800080915F02881F8827881F90916002292F0E
:10189000220F97FB992790F940916202822B0C94BA
:1018A000FC0B60916102862F90E0089714F068505D
:1018B00001C060E080915F02881F8827881F909197
:1018C0006002292F220F97FB992790F9409162021D
:1018D000822B0C94FC0B40916202842F90E0883F95
:1018E000910514F4485F01C04FEF80915F02881F9B
:1018F0008827881F90916002292F220F97FB992734
:1019000090F960916102822B0C94FC0B4091620271
:10191000842F90E0089714F0485001C040E0809177
:101920005F02881F8827881F90916002292F220F4D
:1019300097FB992790F960916102822B0C94FC0B24
:1019400020E00C94430B90915F0290FF48C0917887
:10195000811102C0926007C0853210F0986403C004
:101960008F73880F982B90935F02662351F06091DC
:101970005F027091600280916102909162020E9408
:10198000AC0A80915F02282F2E77223019F4109232
:10199000870114C0982F96959F733EE3390F3F73CC
:1019A000373120F0263411F0283421F491E090935F
:1019B000870104C0995D9F739A3048F3881F882778
:1019C000881F90916002292F220F97FB992790F989
:1019D0004091620260916102822B0C94A00C0895E8
:1019E00061E00C94A30C80915F0286958F738F5FEA
:1019F000853208F081E00C94F00C80915F028695AE
:101A00008F73815009F484E20C94F00CEFE5F2E05E
:101A100080818160808386958F730C94F00C60E0E8
:101A20000C94A30C809131028160809331020E945A
:101A3000EF1C811104C00E94C91C0E94B20A0E94BE
:101A4000A80A60935F027093600280936102909392
:101A500062026E7761F40E94B20A0E94A80A609343
:101A60005F0270936002809361029093620281E052
:101A70008093870180915F0280FF04C086958F73F9
:101A80000C940F0D089590915F0290FF10C02031CB
:101A900070F430E0F901EE0FFF1F2E0F3F1FF90128
:101AA000EC59FD4F8183608342830C94FE0A0895B4
:101AB0001F93CF93DF9300D01F92CDB7DEB7309145
:101AC0005F0230FF0CC0122F9E012F5F3F4F0E941C
:101AD000340A212F4B8169818A810E94430D0F9026
:101AE0000F900F90DF91CF911F910895EFE5F2E0F5
:101AF00080818E7F808360817181828193810E9449
:101B0000AC0A109287012FEF80E792E021508040CD
:101B10009040E1F700C000000C94FE0A80915F0243
:101B200080FD0C94760D0C94060DCF93C82F8091F8
:101B30008501909186010E942E1EEC2FF0E0EC5260
:101B4000FD4FE491F0E08E179F0708F443C00E9418
:101B5000221E90938601809385016091840170E03C
:101B600080E090E00E94642B20E030E04FE753E4F7
:101B70000E94872A2BED3FE049E450E40E948D2C1F
:101B80000E94FA2C0E94012B2BE43AE34EE25FE321
:101B90000E941A2A20EF3BEF48ED52E40E948D2C60
:101BA0000E94332B462F80915F02881F8827881F51
:101BB00090916002292F220F97FB992790F960914D
:101BC0006102822B0E94290B8091840190E0019692
:101BD00080938401CF910895CF93C82F8091820183
:101BE000909183010E942E1EEC2FF0E0EF52FD4FEA
:101BF000E491F0E08E179F07E8F00E94221E909378
:101C00008301809382014091620260916102809120
:101C10008001909181010E94290B80918001909117
:101C20008101019668E671E00E94732D9093810115
:101C300080938001CF910895CF92DF92FF920F930E
:101C40001F93CF93DF93F82E80917E0190917F01B7
:101C50000E942E1EEF2DE695F0E0E253FD4FE49139
:101C6000F0E08E179F07F0F10E94221E90937F01F3
:101C700080937E0104E612E0C0E0D0E088E6C82E42
:101C8000DD24D39480917C0190917D018C0F9D1F68
:101C9000B6010E94732D9801409162026091610229
:101CA0000E94340A66960D5F1F4FC03681E0D80748
:101CB00049F70E94FE0A20917C0130917D01F0FEDF
:101CC0000BC0C901019668E671E00E94732D9093E4
:101CD0007D0180937C0106C02150310930937D0144
:101CE00020937C01DF91CF911F910F91FF90DF90A6
:101CF000CF900895AF92BF92CF92DF92EF92FF9272
:101D00000F931F93CF93DF93C82F80FF02C01FEF65
:101D100001C011E080917A0190917B010E942E1EFA
:101D2000C695EC2FF0E0E553FD4FE491F0E08E17FF
:101D30009F0708F465C00E94221E90937B01809348
:101D40007A0124E6C22E22E0D22E36E6E32E32E0DD
:101D5000F32EC0E0D0E0F70131971082F601108237
:101D6000F701108294E0A92EB12C00E08091790156
:101D7000800F87FD805F082E000C990BC817D907CC
:101D8000E9F4809162028A9DA0018B9D500D11247F
:101D9000559547955595479580915F02881F8827EF
:101DA000881F90916002592F550F97FB992790F942
:101DB000960160916102852B0E94340A010FF1E0C7
:101DC000AF1AB10899F6219683E0C80ED11CE3E062
:101DD000EE0EF11CC031D10509F0BDCF0E94FE0A04
:101DE00080917901113031F4811102C08FE006C079
:101DF000815004C090E001968F70992780937901FB
:101E0000DF91CF911F910F91FF90EF90DF90CF90D6
:101E1000BF90AF900895EF92FF920F931F93CF93CF
:101E2000DF93C82F80917701909178010E942E1E38
:101E3000EC2FF0E0E853FD4FE491F0E08E179F07A0
:101E400008F464C00E94221E909378018093770169
:101E500080E090E0FC01EC59FD4F1182108212826B
:101E6000039680339105B1F784E6E82E82E0F82EE0
:101E700006E612E0C0E0D0E080917601082E000C6A
:101E8000990BC817D907ECF080910101082E000CBE
:101E9000990B8C179D07ACF080915F02881F8827F3
:101EA000881F90916002592F550F97FB992790F941
:101EB00097014091620260916102852B0E94340A71
:101EC00007C0F80131971082F7011082F8011082E3
:101ED0002196F3E0EF0EF11C0D5F1F4FC031D105CD
:101EE00059F60E94FE0A8091000190917601980FA8
:101EF0009093760120910101280F20930101121681
:101F000014F49F301CF0819580930001DF91CF91F4
:101F10001F910F91FF90EF900895EF92FF920F9312
:101F20001F93CF93DF9380917401909175010E946C
:101F30002E1E883E9340D0F10E94221E9093750180
:101F400080937401C0917201D09173012196C17088
:101F5000DD27D0937301C093720184E6E82E82E0FE
:101F6000F82E10E008E7812F8695FE01E80FF11D9D
:101F7000CF018170992797014091620260916102BF
:101F8000FC010E9FC0010F9F900D11240E94340A86
:101F90001F5FF3E0EF0EF11C103129F7DF91CF91B5
:101FA0001F910F91FF90EF900C94FE0ADF91CF915B
:101FB0001F910F91FF90EF900895CF93DF9300D082
:101FC0001F92CDB7DEB780917001909171010E9490
:101FD0002E1EECEBF2E02591349182179307C0F1AD
:101FE00080916F0181110CC09E012F5F3F4F4FEF19
:101FF0006FEF80E090E00E94340A8A8180936F0145
:102000000E94221E909371018093700180916E0155
:10201000813051F028F0823061F440916F010AC0A4
:1020200080916F0140E007C060916F0140E080E067
:1020300003C040E080E060E00E94150B80916E01DB
:1020400090E0019663E070E00E94872D80936E011E
:102050000F900F900F90DF91CF910895CF93DF9362
:1020600080916C0190916D010E942E1E843F9140E1
:1020700008F444C00E94221E90936D0180936C016D
:10208000C0E0D0E020916A0130916B0180915F0245
:1020900090916002C830D1051CF4232B79F002C066
:1020A000232B61F4881F8827881F392F330F97FB54
:1020B000992790F92C2F409162020AC0881F882727
:1020C000881F392F330F97FB992790F92C2F40E069
:1020D00060916102832B0E94580D2196C031D10579
:1020E00089F60E94FE0A80916A0190916B01019627
:1020F0008170992790936B0180936A01DF91CF9152
:102100000895809187018823D9F190915F02892FEA
:1021100086958F732EE3280F2F73243018F4825086
:102120000C94950D2AE3280F2F73233018F4865052
:102130000C94EC0D27E3280F2F73263018F48950E8
:102140000C941C0E21E3280F2F73263018F48F50A7
:102150000C947A0E2BE2280F2F73233018F485513C
:102160000C940B0F892F8E77803311F40C948D0F04
:10217000863411F40C94DD0F883411F40C942E1075
:1021800008952EB1342F309523233EB1432B3FB712
:10219000F894FC01680F791FE617F70789F0819121
:1021A00098E04EB9000000C087FF2EB9880F0000EC
:1021B00000C000C000C02EB900C09A9591F7ECCFC6
:1021C0003FBF08952DB1242B2DB99B01220F331F42
:1021D000620F731F0E94C11087EC90E00197F1F726
:1021E00000C00000089544E00C94E21090938D012B
:1021F00080938C010895E0918C01F0918D013097CE
:1022000021F00190F081E02D099480E00895E091A3
:102210008C01F0918D01309721F00280F381E02D47
:1022200009940895E0918C01F0918D01309721F08F
:102230000480F581E02D0994089520918A01309160
:102240008B018217930771F090938B0180938A0121
:10225000E0918C01F0918D01309721F00680F7819B
:10226000E02D099408952091880130918901821709
:10227000930771F09093890180938801E0918C011C
:10228000F0918D01309721F00084F185E02D0994C3
:10229000089508950C94491181E008950E94191E33
:1022A00085B7806885BF85B7806885BF0E942E0985
:1022B0000E94EE1E0E9438220C94120D4F925F92E3
:1022C0007F928F929F92AF92BF92CF92DF92EF92C6
:1022D000FF920F931F93CF93DF93CDB7DEB72A976B
:1022E0000FB6F894DEBF0FBECDBF0E9476090E94E4
:1022F0004C11811111C08FEF89838A831B820E9448
:10230000221E8160782F9D838C8349815A816B8145
:102310008D810E941C1257C09FE8C92E91E0D92ED2
:1023200000E010E0AA24A394B12C702E802F0E940C
:102330002A0A4C01F601419051906F014826592616
:102340004114510431F40F5F1F4F0530110569F737
:10235000D2CF8091310281FD0E94330A20E030E02B
:102360007501022E02C0EE0CFF1C0A94E2F7C701B1
:1023700084219521892B09F12E837F828E209F2035
:1023800091E0892809F490E098870E94221E8160DC
:10239000782F9A8789874E815F8168858A850E9418
:1023A0001C12000F111FF801E157FE4F808191812F
:1023B000E826F926F182E08206C02F5F3F4F2F30DA
:1023C000310571F6C0CF0E94912110918E010E94BB
:1023D000FB101817D9F00E94FB1080938E012A96EB
:1023E0000FB6F894DEBF0FBECDBFDF91CF911F9126
:1023F0000F91FF90EF90DF90CF90BF90AF909F90A4
:102400008F907F905F904F900C9491032A960FB617
:10241000F894DEBF0FBECDBFDF91CF911F910F911A
:10242000FF90EF90DF90CF90BF90AF909F908F90F4
:102430007F905F904F900895CF93DF93CDB7DEB735
:102440002B970FB6F894DEBF0FBECDBF4F835887D2
:1024500069877A878B87DE01119686E0FD011192EC
:102460008A95E9F785E0FE01379601900D928A95ED
:10247000E1F749815A816B817C818D819E810E9427
:1024800033192B960FB6F894DEBF0FBECDBFDF9188
:10249000CF910895FC01808191810E94FB1B0895DA
:1024A000882309F4F3C0682F8238C1F40E94FB101E
:1024B00081FDECC069E380910201909103010E94CB
:1024C0007A1D0E945A1C2FEF81EE94E0215080402B
:1024D0009040E1F700C0000069E319C08338F9F4C7
:1024E0000E94FB1080FDD2C063E5809102019091B3
:1024F00003010E947A1D0E945A1C2FEF81EE94E086
:10250000215080409040E1F700C0000063E58091D9
:102510000201909103010E94851D0C945A1C84387D
:10252000C1F40E94FB1082FDB1C067E480910201FA
:10253000909103010E947A1D0E945A1C2FEF81EE98
:1025400094E0215080409040E1F700C0000067E433
:10255000DECF8CEF860F813A38F4809102019091A2
:1025600003010E947A1DD9CF80E2860F883048F49B
:10257000677081E001C0880F6A95EAF70E94901C9D
:10258000CCCF8BE5860F833070F4653A29F0663A3C
:1025900031F083E890E005C081E890E002C082E875
:1025A00090E00C941D1188E5860F853108F06EC00F
:1025B000683A61F1693A69F16A3A71F16B3A79F115
:1025C0006C3A81F16B3B89F16C3B91F16D3A99F179
:1025D000603BA1F16E3AA9F16F3AB1F1613BB9F1FB
:1025E000623BC1F1633BC9F1643BD1F1653BD9F179
:1025F000663BE1F1673BE9F1683BF1F1693BF9F1D9
:102600006A3B09F43FC080E090E03EC082EE90E07B
:102610003BC089EE90E038C08AEE90E035C085EB93
:1026200090E032C086EB90E02FC083EB90E02CC0AE
:1026300084EB90E029C087EB90E026C08CEC90E022
:1026400023C08DEC90E020C083E891E01DC08AE8B3
:1026500091E01AC082E991E017C084E991E014C0CA
:1026600081E292E011C083E292E00EC084E292E047
:102670000BC085E292E008C086E292E005C087E2E6
:1026800092E002C08AE292E00C943311089588230C
:1026900009F45BC0682F823879F40E94FB1081FF37
:1026A00054C069E380910201909103010E947A1D58
:1026B0000E945A1C69E310C08338B1F40E94FB10D9
:1026C00080FF43C063E580910201909103010E9465
:1026D0007A1D0E945A1C63E58091020190910301CA
:1026E0000E94851D0C945A1C843879F40E94FB10BA
:1026F00082FF2BC067E480910201909103010E9448
:102700007A1D0E945A1C67E4E7CF8CEF860F813A4E
:1027100018F380E2860F883048F4677081E001C0CA
:10272000880F6A95EAF70E94961CDCCF8BE5860F2E
:10273000833020F480E090E00C941D11685A6531DC
:1027400020F480E090E00C9433110895882321F068
:102750000E94901C0C945A1C0895882321F00E941A
:10276000961C0C945A1C08954F925F926F927F9220
:10277000BF92CF92DF92EF92FF920F931F93CF936E
:10278000DF937C01D62FC72FFC01058102950F70C6
:10279000128111110E94AD1C0E94531C882379F0F4
:1027A000112369F080E28D0F883048F082E00E94AA
:1027B0003C1C0E94531C91E0B82EB92601C0B12CDC
:1027C000CC2EC2948FE0C822D12CF601E859FF4FDD
:1027D0000C94BD2D8C2F807FCF70882311F0C29573
:1027E000C07F112399F0CC2309F4D0C180E28D0F72
:1027F000883010F0D11104C08C2F0E94901C03C0AF
:102800008C2F0E94A01C0E945A1CC0C18D2F0E94B8
:102810004713CC2309F403C280E28D0F883010F0F7
:10282000D11104C08C2F0E94961C03C08C2F0E94D3
:10283000A61C0E945A1CF3C18C2F807FCF7080325F
:1028400011F0C295C07FDD2319F0D130C9F022C04C
:10285000112371F0002341F0013031F40E94C61CB5
:102860008C2B0E94C01CDBC10E94C61C8C2B46C155
:10287000002319F0013009F4D2C10E94C31C18C012
:10288000112321F0063008F0CAC10EC0053008F04F
:10289000C6C10EC0112351F0002331F0F70185812C
:1028A00080FF74C18F7085838C2F28C101117FC177
:1028B0008C2F2AC18C2F86958695837090E0009787
:1028C00019F0019761F0ABC1112321F08D2F9C2FDE
:1028D000937002C080E090E00E941D11B0C11123EE
:1028E00021F08D2F9C2F937002C080E090E00E9419
:1028F0003311A5C11123F9F0D53F51F0D63F71F046
:10290000D43FA9F4809194029091950281600BC00C
:102910008091940290919502826005C0809194020A
:1029200090919502846090939502809394028D2FEC
:102930000E9499201EC0D53F51F0D63F71F0D43F80
:10294000A9F480919402909195028E7F0BC08091A2
:102950009402909195028D7F05C080919402909190
:1029600095028B7F90939502809394028D2F0E9405
:1029700001210E94862163C18C2F837009F050C011
:10298000111159C18D2F829586958770880F880FF8
:102990009D2F9F70492E512C612C712C082E04C044
:1029A000440C551C661C771C0A94D2F7D4FF14C043
:1029B0000FE010E020E030E0B901A80104C0440FAE
:1029C000551F661F771F8A95D2F7CB01BA01609514
:1029D00070958095909503C060E070E0CB01C6953E
:1029E000C695C370D0E0C230D10561F0C330D105C7
:1029F00081F06429752986299729219771F00E9411
:102A0000761A19C164297529862997290E94881A7E
:102A100012C10E94761AC301B2010E94641A0BC14E
:102A2000112319F08C2F817001C08695882309F439
:102A300002C18D2F829586958770880F880F9D2FF4
:102A40009F70492E512C612C712C082E04C0440C0F
:102A5000551C661C771C0A94D2F7D4FF14C00FE0F3
:102A600010E020E030E0B901A80104C0440F551F78
:102A7000661F771F8A95D2F7CB01BA0160957095D2
:102A80008095909503C060E070E0CB01C695C69537
:102A9000C3704C2F50E04230510569F0433051056E
:102AA00089F064297529862997294130510571F0EB
:102AB0000E943C1BC0C064297529862997290E9461
:102AC0004E1BB9C00E943C1BC301B2010E942A1BCD
:102AD000B2C08D2F90E0FC01E05EF109E531F10517
:102AE00008F050C0E858FF4F0C94BD2DDF708C2FBC
:102AF0008F71112331F00E94C31A8D2F0E94A613EB
:102B00008EC00E94E41A8D2F0E94AD1388C011233D
:102B100041F0053008F083C08C2F8F710E94091B93
:102B20007EC0063008F07BC0F7CF112339F08C2F20
:102B30008F710E94C31A73C01123C9F38C2F8F7138
:102B40000E94E41A6CC0112329F08C2F8F710E940F
:102B5000AE1A65C00E94A91A62C0112349F0CF7154
:102B60008C2F0E94C31A63E08C2F0E94331C57C025
:102B700081E00E943C1C023008F451C082E00E94B7
:102B80003C1C4DC0112331F0002389F28D2F0E948F
:102B9000501245C0002391F2D93349F45FEF67EE3C
:102BA00073E0515060407040E1F700C000008D2F8D
:102BB0000E94471334C04C2F4F706D2FC7010E94E5
:102BC00043060E94D7193BC0111139C0CF70D0E025
:102BD000C230D10599F03CF4209769F02197F9F4BF
:102BE0000E9472222CC0C430D10571F054F0259798
:102BF000B1F480E00AC00E94552221C00E948E22BA
:102C00001EC00E94A8221BC085E00E94CB2217C0D4
:102C10004C2F4F706D2FC7010E94460610C088E0F0
:102C2000C816D10441F05CF0EAE0CE1AD108F2E017
:102C3000CF16D10420F40E94FB100E949103BB2008
:102C4000F1F00E942F1C80FD1AC0F70112820E9431
:102C5000291C0E94C31AC7010E944D160E94291CFC
:102C6000DF91CF911F910F91FF90EF90DF90CF9068
:102C7000BF907F906F905F904F900C94E41ADF911B
:102C8000CF911F910F91FF90EF90DF90CF90BF9069
:102C90007F906F905F904F9008950F931F93CF9305
:102CA000DF93EC01888199812B813C81232BB9F042
:102CB0009F3F11F48F3F99F0CE010E94A303882318
:102CC00071F0688179818A810E94061C8C010E94C2
:102CD000601B0E94611AB801CE010E94B413DF91FB
:102CE000CF911F910F9108950E94AD1C0E94BD1CB1
:102CF00080910201909103010E94901D0E945A1C34
:102D00000E942C220E94862180E090E00E941D11EA
:102D100080E090E00C9433110E949D1C0C9474167A
:102D20000E94FB1BE92FE295EF70F0E03297EE3046
:102D3000F105B0F4E357FF4F0C94BD2D803F91F0A7
:102D400018F4803E68F40EC0843F51F40BC0803EFE
:102D500048F0813F29F406C093FB882780F9089545
:102D600080E0089581E00895CF93DF9300D000D0F4
:102D70001F92CDB7DEB70F900F900F900F900F906E
:102D8000DF91CF910895CF93DF9300D000D000D092
:102D9000CDB7DEB726960FB6F894DEBF0FBECDBF17
:102DA000DF91CF9108951F93CF93DF93C0919A0144
:102DB00016E080919B01C81799F0D0E01C9FF001AC
:102DC0001D9FF00D1124E456FE4F40815181628118
:102DD0007381848195810E94C3162196C770E9CFC3
:102DE000DF91CF911F9108954091CC015091CD0179
:102DF0006091CE017091CF018091D0019091D1016D
:102E00000C94C3168091D10182958F7009F054C043
:102E10008091CE01882309F44FC080919A01A0913E
:102E20009B016091CC017091CD014091CF015091F7
:102E3000D001B6E08A1709F43FC090E04115510572
:102E4000C1F17F3F11F46F3FA1F1B89FF001B99F2D
:102E5000F00D1124E456FE4F218172132AC0208107
:102E6000621327C02281211124C0238134812417B9
:102E7000350710F421503109241B350B283C31054E
:102E8000C0F42091D1012F7020612093D10126E060
:102E9000289FF001299FF00D1124EF55FE4F8081EE
:102EA0008F70806180838CEC91E00E944D160C94B1
:102EB000D31601968770BECF0895CF92DF92EF921E
:102EC000FF920F931F93CF93DF93CDB7DEB7629737
:102ED0000FB6F894DEBF0FBECDBF8C0185E0F801C0
:102EE000DE011D9601900D928A95E1F7D8014C9173
:102EF00011965C91119712966C9112971396CD9042
:102F0000DC9014973091CC017091CD018091CF016C
:102F10009091D001009709F46BC17F3F19F43F3FB6
:102F200009F466C1E090CE01EE2009F4C0C0209102
:102F3000D101C816D90628F0F601E81BF90BCF011C
:102F400004C0809590958C0D9D1DFF24F394883CC2
:102F5000910578F0F12C207F09F0C6C07C2DD98A2C
:102F6000C88A89890E94B4168CEC91E00E944D16A3
:102F7000B1C0822F807F09F046C0751314C034138E
:102F800012C0611110C02F7020612093D1010E94E6
:102F9000F4168CEC91E00E944D168091D101D8017D
:102FA00015968C932EC0CD2819F15F3F11F44F3F39
:102FB000F9F0F62E61111CC080919A0120919B01BD
:102FC00036E0821709F45AC090E0389FF001399F2B
:102FD000F00D1124E456FE4F7181571306C0708125
:102FE000471303C07281711103C001968770E9CF46
:102FF000F62E662309F427C18091D1018160809368
:10300000D101F12C20C1751308C0341306C0611121
:1030100004C08091D101D801C3C04D875E878D85E2
:103020009E856A8B0E9490166A898823E1F1662347
:10303000D1F12091D101822F82958F7090E002977B
:1030400074F08091CC019091CD0198878F8319867F
:10305000DB86CA862C87CE0107960E944D1686E035
:10306000F801ACECB1E001900D928A95E1F70E9475
:1030700002170E94F416FF24F394E5C04D875E8783
:103080008D859E850E94FB1B292F22952F7030E095
:10309000223031050CF0CBC09F7009F0C5C0805EB6
:1030A000883008F4D0C0C8010E944D16E4CFC8167D
:1030B000D90608F453C0F601E81BF90BCF01883C90
:1030C000910508F450C0F12C7C2DD98AC88A8989D1
:1030D0000E94B416ECECF1E086E0DF011D928A95C7
:1030E000E9F70E94F416AFC0751314C0341312C070
:1030F000611110C08091D101F8018583C8010E943F
:103100004D1686E0ECECF1E0DF011D928A95E9F7BF
:10311000FE2C99C04D875E878D859E856A8B0E94A7
:1031200090166A89882309F4BECF662309F4BBCFC1
:103130002091D101822F82958F7090E002970CF43C
:103140008ECF8091CC019091CD019A8389831B828F
:10315000DD82CC822E83CE0101967FCF8095909523
:103160008C0D9D1DACCFF62E662309F49CCF7513F4
:103170002EC034132CC02091D10120FD1FC0822FFE
:1031800082958F70D9F0D80115962C9315978F30B2
:1031900049F08F5F982F9295907F822F8F70892BA7
:1031A00015968C93C8010E944D1686E0F801ACEC90
:1031B000B1E001900D928A95E1F793CF86E0F80196
:1031C000ACECB1E001900D928A95E1F73CC04D87DF
:1031D0005E878D859E850E949016811140CF8091DB
:1031E000D10181608093D101C8010E944D162BC08E
:1031F000662309F458CF4D875E878D859E850E9492
:103200009016F82E882309F44ECF86E0F801ACEC36
:10321000B1E001900D928A95E1F78CEC91E00E946B
:103220004A120E9402175DCF811139CF0CC02430A1
:1032300031050CF038CF9F7009F431CFF80195813A
:10324000907F09F02CCF8F2D62960FB6F894DEBFD9
:103250000FBECDBFDF91CF911F910F91FF90EF90E7
:10326000DF90CF9008951F93CF93DF93CDB7DEB754
:103270002C970FB6F894DEBF0FBECDBF4F83588793
:1032800069877A878B879C87CE0107960E945D1796
:10329000882369F08F8198852A853B85232BF1F15E
:1032A0009F3F09F063C08F3F09F060C037C086E0E0
:1032B000FE013796DE01119601900D928A95E1F795
:1032C0006F817885EA85FB85309741F17F3F11F466
:1032D0006F3F21F120919B0130E0C9010196877079
:1032E000992740919A0150E08417950709F447C047
:1032F00069837A83FD83EC8396E0929FD001939F4C
:10330000B00D1124A456BE4FFE01319601900D92CE
:103310009A95E1F780939B010E94D31616E0809165
:103320009A0190919B018917C1F1189FC001112446
:1033300084569E4F0E945D17882379F1E0919A018F
:103340001E9FF0011124E456FE4F4081518162819D
:103350007381848195810E94C31680919A0190E0C7
:1033600001968770992780939A01D9CF4F8158850C
:1033700069857A858B859C850E94C316CFCF0E9474
:103380008C1610929B0110929A01ECECF1E086E011
:10339000DF011D928A95E9F7C1CF2C960FB6F894FC
:1033A000DEBF0FBECDBFDF91CF911F910895EF9289
:1033B000FF920F931F93CF93DF938C01892B09F416
:1033C0006CC0F12CEE24E394E8012196F80184917D
:1033D000843740F4843008F051C0813081F082306D
:1033E00019F15BC0853709F444C0A8F19CE7980F38
:1033F000903708F052C08F770E94471341C00E5F8C
:103400001F4FFE01C49180E28C0F883048F4C770D2
:103410008E2D01C0880FCA95EAF70E94B01C14C017
:103420008C2F0E9450122DC00E5F1F4FFE01C491C1
:1034300080E28C0F883058F4C7708E2D01C0880F41
:10344000CA95EAF70E94B61C0E945A1C1AC08C2F1B
:103450000E94471316C00E5F1F4FFE01C491CC237C
:1034600081F08FE99FE00197F1F700C00000C150A3
:10347000F6CF0E5F1F4FFE01F49003C00E94501262
:103480008E018F2D882309F49FCFEFE9FFE031975C
:10349000F1F700C000008150F5CFDF91CF911F916F
:1034A0000F91FF90EF90089508950E94541A609331
:1034B00008027093090280930A0290930B020C9405
:1034C000741608950C94551A0F931F9300910802D7
:1034D0001091090220910A0230910B02602B712B8E
:1034E000822B932B1F910F910C94551A0F931F93BE
:1034F000009108021091090220910A0230910B02FA
:1035000060237123822393231F910F910C94551AEA
:103510000F931F93009108021091090220910A0253
:1035200030910B0260277127822793271F910F91FB
:103530000C94551A08950C949A1A0E949B1A609341
:1035400004027093050280930602909307020C9484
:10355000741660E070E0CB010C949D1A0F931F93DA
:1035600041E050E060E070E08A019B0104C0000F80
:10357000111F221F331F8A95D2F7C901B8011F916D
:103580000F910C949D1A0F931F9341E050E060E05F
:1035900070E004C0440F551F661F771F8A95D2F74D
:1035A0008091040290910502A0910602B091070259
:1035B0008A019B01082B192B2A2B3B2BC901B8012F
:1035C0001F910F910C949D1A0F931F9341E050E0AF
:1035D00060E070E004C0440F551F661F771F8A9596
:1035E000D2F7409550956095709580910402909126
:1035F0000502A0910602B09107028A019B010823EF
:1036000019232A233B23C901B8011F910F910C9460
:103610009D1A0F931F9341E050E060E070E004C0FA
:10362000440F551F661F771F8A95D2F780910402B9
:1036300090910502A0910602B09107028A019B01B8
:10364000082719272A273B27C901B8011F910F9185
:103650000C949D1A0F931F93009104021091050280
:103660002091060230910702602B712B822B932B45
:103670001F910F910C949D1A0F931F9300910402B8
:1036800010910502209106023091070260237123F8
:10369000822393231F910F910C949D1A0F931F93D4
:1036A0000091040210910502209106023091070258
:1036B00060277127822793271F910F910C949D1AE1
:1036C00008952FE0929F800D1124A82FA695A6950E
:1036D000A695877051E001C0550F8A95EAF785E0FD
:1036E000A89FD001112420E030E070E0F901EA0F3A
:1036F000FB1FEE52FE4F4081CB01022E02C0969579
:1037000087950A94E2F7817099278195842785230C
:10371000842780832F5F3F4F2530310539F7089587
:103720002FE0929F800D1124682F6695669566950F
:10373000982F977085E0689FB001112440E050E019
:1037400080E0FA01E60FF71FEE52FE4F208130E0D5
:10375000092E02C0369527950A94E2F72170332787
:10376000042E01C0220F0A94EAF7822B4F5F5F4FAD
:103770004530510531F70895CF92DF92EF92FF92D5
:103780000F931F93CF93DF938C01C0900802D090CA
:103790000902E0900A02F0900B02809104029091DD
:1037A0000502A0910602B0910702C82AD92AEA2A86
:1037B000FB2ACFE1D0E0D701C6010C2E04C0B6959C
:1037C000A795979587950A94D2F780FF06C0B80110
:1037D0008C2F0E946106019721F4219760F780E009
:1037E00001C08C2FDF91CF911F910F91FF90EF902F
:1037F000DF90CF900895CF93DF93EC010E94BC1B24
:10380000BE010E946106DF91CF9108951F93CF936F
:10381000DF93EB0190919901992321F0CB010E9454
:10382000FB1B13C0882349F0CB010E94BC1B182F3F
:10383000682FCE010E94611B04C0CB010E94901B27
:10384000182FBE01812F0E946106DF91CF911F9139
:10385000089580910C0285958595859508958091B0
:103860000C028770089598E0899F90011124262BFF
:1038700020930C020C94C31A20910C028095822391
:1038800080930C02982F977069F430E0482F082E2F
:10389000000C550B2417350729F0859585958595DE
:1038A0000C94E41A089590910C02977081E009F449
:1038B00080E00895E0910201F091030180913002CF
:1038C0008083E0910201F0910301908180912F02A9
:1038D000892B8083E0910201F09103019081809116
:1038E0002E02892B808380910D02882381F0E09144
:1038F0000201F09103019081892B80838091020164
:10390000909103010E941E1D811110920D02809161
:103910000201909103010C940711809130020895E7
:1039200090913002892B8093300208958095909178
:103930003002892380933002089510923002089556
:1039400090912F02892B80932F020895809590915A
:103950002F02892380932F02089510922F02089539
:1039600090912E02892B80932E020895809590913C
:103970002E02892380932E02089510922E0208951C
:1039800080930D02089510920D02089580910D020A
:1039900008956DEE7EEF80E090E00E940F2E60E0D3
:1039A00082E090E00E94F12D60E083E090E00E94D0
:1039B000F12D60E084E090E00E94F12D60E085E070
:1039C00090E00E94F12D60E086E090E00E94F12DF1
:1039D00040E050E0BA0188E090E00C94032E80E0D3
:1039E00090E00E94EB2D21E08D3E9E4F09F020E0FB
:1039F000822F089582E090E00C94DD2D682F82E004
:103A000090E00C94F12D83E090E00C94DD2D682F74
:103A100083E090E00C94F12D84E090E00C94DD2D97
:103A2000682F84E090E00C94F12D86E090E00C94F7
:103A3000DD2D682F86E090E00C94F12DFC0131968D
:103A40009C01205E3F4F80E0919191118F5FE217C2
:103A5000F307D1F708959C01FC0132969FEF80E0B7
:103A60004191461789F09F3F19F4411101C0982FE9
:103A70008F5F8E31A9F79F3F39F0F901E90FF11DF2
:103A800097FDFA95628308950895FC013296809619
:103A90002081261301C010823196E817F907C1F77B
:103AA0000895262F2695269526952F3168F4FC013A
:103AB000E20FF11D677021E030E001C0220F6A952E
:103AC000EAF78181282B21830895262F26952695B4
:103AD00026952F3170F4FC01E20FF11D677021E093
:103AE00030E001C0220F6A95EAF7209581812823F2
:103AF0002183089520911401222329F020919A0214
:103B000027FD0C94511D0C942B1D20911401222390
:103B100029F020919A0227FD0C94651D0C94451DF7
:103B2000FC01319680961192E817F907E1F70895A4
:103B300008950C94981D8091A102843061F1109237
:103B4000320220E488E190E00FB6F894A8958093C3
:103B500060000FBE2093600080E00E94200380E0A0
:103B60000E9491030E94991D83B7817F846083BF67
:103B700083B7816083BF7894889583B78E7F83BF36
:103B80000FB6F894A89580916000886180936000DA
:103B9000109260000FBE089508950895CF930E947B
:103BA000CC1D0E9476090E94CD1DC0E08C2F0E9482
:103BB0002A0A892B29F4CF5FC530C1F780E001C004
:103BC00081E0CF91089508950C94E31D0E948C1616
:103BD0000E9438220E94FB100E9491030C94E41D65
:103BE0001F920F920FB60F9211248F939F93AF9352
:103BF000BF9380913202811113C0809196029091FF
:103C00009702A0919802B09199024196A11DB11D11
:103C10008093960290939702A0939802B093990292
:103C2000BF91AF919F918F910F900FBE0F901F90FA
:103C3000189582E084BD93E095BD9AEF97BD80937F
:103C40006E0008952FB7F894809196029091970294
:103C5000A0919802B09199022FBF0895CF92DF9260
:103C6000EF92FF920F931F932FB7F8944091960213
:103C70005091970260919802709199022FBF6A014A
:103C80007B01EE24FF248C0120E030E0C016D10639
:103C9000E206F30610F4415051099A01281B390B32
:103CA000C9011F910F91FF90EF90DF90CF90089581
:103CB00078941F920F920FB60F9211248F939F93B7
:103CC000AF93BF938091960290919702A091980232
:103CD000B09199020196A11DB11D80939602909317
:103CE0009702A0939802B0939902BF91AF919F91D0
:103CF0008F910F900FBE0F901F90189581E08093C9
:103D0000E00080E28093D8001092C9008FE19EE429
:103D10000197F1F700C0000087E090EBDC01809391
:103D2000AA029093AB02A093AC02B093AD029CE0C8
:103D300088E10FB6F894A895809360000FBE909329
:103D40006000FFCFAF92BF92CF92DF92EF92FF92CF
:103D50000F931F93CF93C0E0CC24C394D12CE82EB3
:103D6000F12C8C2F0E942A0A5C0100E010E09601E1
:103D7000002E02C0220F331F0A94E2F72A213B21B2
:103D8000232B31F40F5F1F4F0F30110581F70AC04D
:103D9000602F7C2F80E00E944706E816F90691F715
:103DA00081E004C0CF5FC530E1F680E0CF911F9184
:103DB0000F91FF90EF90DF90CF90BF90AF9008955C
:103DC000CF93C82F8CE20E94A21E882321F08C2F53
:103DD000CF910C94A21E80E0CF910895CF930E94C2
:103DE000EF1C811102C00E94C91CC5E6C15049F0F8
:103DF0000E9476098FE39CE90197F1F700C000006B
:103E0000F5CF89E20E94E01E81110FC18AE20E9473
:103E1000E01E81110E94C91C85E00E94E01E8111F4
:103E20000E947E1E0E94FA1C8093310287E00E944D
:103E3000E01E8823A9F18BE10E94E01E882351F047
:103E40008091310281FB222720F991E0922790FB9B
:103E500081F90EC08EE00E94E01E882361F08091FF
:103E6000310282FB222720F991E0922790FB82F910
:103E70008093310215C080E10E94E01E90913102D2
:103E8000882341F093FB222720F981E0822780FBE1
:103E900093F904C0892F809580FB90F990933102AB
:103EA000809131020E94FE1C0E940C1D90E09093B4
:103EB0009B0280939A0280EE0E94E01E882341F0CC
:103EC00080919A02982F909590FB80F980939A02A6
:103ED00089E30E94E01E882359F080919A0281FBB9
:103EE000222720F991E0922790FB81F980939A0292
:103EF00082EE0E94E01E882359F080919A0282FB94
:103F0000222720F991E0922790FB82F980939A0270
:103F100086EE0E94E01E882359F080919A0283FB6E
:103F2000222720F991E0922790FB83F980939A024F
:103F300083EE0E94E01E882359F080919A0284FB50
:103F4000222720F991E0922790FB84F980939A022E
:103F500085E30E94E01E882359F080919A0285FB38
:103F6000222720F991E0922790FB85F980939A020D
:103F700081E30E94E01E882359F080919A0286FB1B
:103F8000222720F991E0922790FB86F980939A02EC
:103F900081E10E94E01E882359F080919A0287FBFC
:103FA000222720F991E0922790FB87F980939A02CB
:103FB00080919A020E94101D87E20E94E01EC82F85
:103FC0008EE10E94E01E8111C2608FE10E94E01E1E
:103FD0008111C46080E20E94E01E8111C86081E20C
:103FE0000E94E01E8111C06182E20E94E01E8111E8
:103FF000C06283E20E94E01E8111C06484E20E94DC
:10400000E01E882311F0C06802C0CC2329F08C2F59
:104010000E94071D6C2F03C00E94031D682F70E0D3
:1040200080E090E0CF910C94621ACF910895809136
:10403000350280FF0BC06091070185E0689FB001E9
:10404000112475956795759567952BC081FF09C0FB
:104050006091070185E0689FB0011124759567950F
:1040600020C082FF07C06091070185E0689FB00112
:10407000112417C0909136029923D1F06091060166
:10408000961788F72091070185E0289F9001112459
:10409000929FA001939F500D112470E0CA010E94CD
:1040A000872D6038710540F46115710539F002C043
:1040B00065E070E0862F08958FE7089581E0089508
:1040C0008091350280FF08C06091050170E0759510
:1040D00067957595679521C081FF06C060910501C0
:1040E00070E07595679519C082FF04C06091050165
:1040F00070E010C0909136029923C1F060910401E4
:104100009617A0F780910501899FC001112470E0E6
:104110000E94872D6038710528F46115710521F022
:10412000862F08958FE7089581E0089561E070E09B
:10413000F4CF803F21F40E941720819504C0813F75
:1041400029F40E941720809339020895823F21F4B8
:104150000E941720819504C0833F29F40E941720F4
:10416000809338020895893F19F40E94602005C0A9
:104170008A3F31F40E946020819580933A0208952D
:104180008B3F21F40E946020819504C08C3F29F46C
:104190000E94602080933B020895843F21F4809127
:1041A0003702816017C0853F21F480913702826019
:1041B00011C0863F21F48091370284600BC0873F95
:1041C00021F480913702886005C0883F31F48091E6
:1041D000370280618093370208958D3F21F48091EA
:1041E000350281600BC08E3F21F4809135028260E0
:1041F00005C08F3F29F48091350284608093350299
:104200000895803F39F48091390287FF6CC0109285
:10421000390269C0813F29F4809139021816BCF334
:1042200062C090913802823F29F497FF5CC01092DF
:10423000380259C0833F19F41916CCF354C0893F92
:1042400041F480913A0218160CF04DC010923A02D7
:104250004AC08A3F29F480913A0287FF44C0F6CFD2
:104260008B3F39F480913B0287FF3DC010923B02A7
:104270003AC08C3F29F480913B021816BCF333C03E
:10428000843F21F4809137028E7F17C0853F21F44F
:10429000809137028D7F11C0863F21F480913702D3
:1042A0008B7F0BC0873F21F480913702877F05C049
:1042B000883F31F4809137028F7E8093370213C09C
:1042C0008D3F21F4809135028E7F0BC08E3F21F40B
:1042D000809135028D7F05C08F3F29F48091350292
:1042E0008B7F809335028091380281110EC08091BE
:1042F000390281110AC080913A02811106C0809171
:104300003B02811102C010923602089587E392E0C9
:104310000E9412110E94221E909334028093330255
:1043200008951F93CF93DF938091330290913402CD
:104330000E942E1EAC0190913602992321F020910B
:10434000080130E006C0209109018AE0289F900111
:1043500011244217530708F47BC080913802C091A2
:104360003902D0913A0210913B02811107C0C1116C
:104370006BC0D11169C0111167C06AC09F3F19F0AD
:104380009F5F90933602181624F40E9417208093A2
:1043900038028091380287FF05C00E94172081955E
:1043A000809338021C1624F40E941720809339024F
:1043B0008091390287FF05C00E9417208195809364
:1043C0003902309138023323E1F02091390222235F
:1043D000C1F045EB3403C0011124892F990F990BCB
:1043E000009709F481E08093380235EB2303C00184
:1043F0001124892F990F990B009709F481E080937C
:1044000039021D1624F40E94602080933A028091A4
:104410003A0287FF05C00E946020819580933A028E
:10442000111624F40E94602080933B0280913B028D
:1044300087FF05C00E946020819580933B02DF9139
:10444000CF911F910C9486219F3F09F099CFA1CF66
:10445000DF91CF911F910895E7E3F2E085E0DF015E
:104460001D928A95E9F7109236021092350208954E
:104470000E94EF1C811102C00E94C91C0E94151DE0
:1044800080939C02282F269530E02630310524F0B9
:1044900081708A6080939C0280919C0280FF02C0A0
:1044A000869501C080E00C94200320919C02822F0D
:1044B0008695482F50E04530510544F48F5F982F82
:1044C000990F822F8170892B80939C0280919C028E
:1044D000816080939C020E94191D80919C028695A8
:1044E0000C94200380919C02982F969591F09158FE
:1044F000990F8170892B80939C028E7F91E009F443
:1045000090E080919C0290FB80F980939C020E9435
:10451000191D80919C0286950C94200380919C0229
:10452000982F909590FB80F980939C02813019F42C
:1045300083E080939C0280919C020E94191D8091CF
:104540009C0280FF02C0869501C080E00C9420038D
:1045500090919C02892F86958F5F8F77917086301E
:1045600028F4880F892B80939C0202C090939C02B0
:1045700080919C028E7F91E009F490E080919C02F2
:1045800090FB80F980939C020E94191D80919C02EF
:1045900086950C942003863008F085E0880F909172
:1045A0009C029170892B80939C028E7F91E009F48C
:1045B00090E080919C0290FB80F980939C020E9485
:1045C000191D80919C0286950C94200380915C02B9
:1045D00008950F931F93CF93DF9300D01F92CDB711
:1045E000DEB78C010E946125823011F0843019F50C
:1045F00093E099831B830A839093E9008FEF909156
:10460000E800815095FD06C095ED9A95F1F7000000
:104610008111F5CF8091E80085FF0DC040E050E0AA
:1046200063E070E0CE0101960E947E258091E80053
:104630008E778093E8000F900F900F90DF91CF91CD
:104640001F910F910895CF93DF9300D01F92CDB7A4
:10465000DEB72091A102243031F522E02983805871
:1046600091099B838A8383E08093E9008FEF909187
:10467000E800815095FD06C095ED9A95F1F7000090
:104680008111F5CF8091E80085FF0DC040E050E03A
:1046900063E070E0CE0101960E947E258091E800E3
:1046A0008E778093E8000F900F900F90DF91CF915D
:1046B0000895CF93DF93EC010E946125823011F0C1
:1046C0008430F9F482E08093E9009FEF8091E80064
:1046D000915085FD06C085ED8A95F1F70000911196
:1046E000F5CF8091E80085FF0CC040E050E065E028
:1046F00070E0CE010E947E258091E8008E77809345
:10470000E800DF91CF910895CF93DF93EC010E94F1
:104710006125823019F0843009F047C0809114017E
:104720008823E1F080919A0287FF18C084E080938B
:10473000E9008FEF9091E800815095FD06C095E16A
:104740009A95F1F700008111F5CF8091E80085FF7F
:104750002CC040E050E060E270E017C081E0809340
:10476000E9008FEF9091E800815095FD06C095ED2E
:104770009A95F1F700008111F5CF8091E80085FF4F
:1047800014C040E050E068E070E0CE010E947E2559
:104790008091E8008E778093E80080E2FE01ACE330
:1047A000B2E001900D928A95E1F7DF91CF910895E3
:1047B0008091A002811109C00E9413270E947027D6
:1047C0008091E20084608093E20008951092A0023C
:1047D0000895089508950C94E61D42E061EC81E08F
:1047E0000E948D2642E061EC82E00E948D2642E02C
:1047F00061EC83E00E948D2642E261EC84E00C943F
:104800008D268091A302833009F455C030F48130A5
:1048100071F0823009F48EC008958A3009F47AC0AC
:104820008B3009F460C0893009F09CC020C08091B1
:10483000A202813A09F096C08091E800877F8093B8
:10484000E8008091A6029091A702892B21F460E2F2
:104850008CE392E003C060E080E090E070E00E94B2
:10486000C9258091E8008B778093E80008958091B6
:10487000A202813209F076C08091A6029091A7022F
:10488000009719F0039709F06DC08091E800877FC9
:104890008093E8008091E80082FD05C08091A1022C
:1048A0008111F8CF5FC08091F10080935C0280910C
:1048B000E8008B7753C08091A202813A09F052C080
:1048C0008091A6029091A702892B09F04BC080919C
:1048D000E800877F8093E8008091E80080FFFCCFAC
:1048E0008091140136C08091A2028132D9F5809165
:1048F000A6029091A702892BA9F58091E800877FF5
:104900008093E8000E94C2268091A4028093140143
:104910000C948C168091A202813221F58091E800DE
:10492000877F8093E8000E94C2268091A502809331
:104930005D0208958091A202813AA1F48091E8007D
:10494000877F8093E8008091E80080FFFCCF809112
:104950005D028093F1008091E8008E778093E800FB
:104960000C94C226089584B7877F84BF0FB6F8944D
:10497000A89580916000886180936000109260002B
:104980000FBE80E880936100109261000E944A117E
:104990000E9413270E9470278091E2008460809318
:1049A000E20078940E94FF290E944E118AE091E073
:1049B0000E94F6108091A102853069F40E949B1D2F
:1049C00080919F028823B1F30E94CE1D882391F32A
:1049D0000E946825EFCF0E945E110E948110EACFED
:1049E0000C94F224292F332723303105C9F064F4C5
:1049F0002130310581F02230310509F049C08DE6C2
:104A000090E020E034E048C02132310521F122322B
:104A1000310571F13DC082E190E02DE634E03CC00B
:104A200099278130910571F02CF4892B89F5ECEFF1
:104A3000F3E00DC08230910541F0039749F5E8EDB0
:104A4000F3E005C0EAEEF3E002C0EEEDF3E084919E
:104A500090E09F0121C064307105D0F4660F771F8C
:104A6000FB01EB5CFE4F2081318189E090E014C0B6
:104A70006430710568F4FB01EE0FFF1FE35DFE4F2C
:104A800020813181FB01E75DFE4F808190E004C011
:104A900080E090E020E030E0FA0131832083089547
:104AA0000895CF93C82F0E945025C0935E02CF91E6
:104AB00008958091A102843011F081E0089582E090
:104AC000089580915E02811102C00C9459250895C9
:104AD00080E189BD82E189BD09B400FEFDCF8091EE
:104AE000D8008F7D8093D8008091E0008260809311
:104AF000E0008091E00081FDFCCF0895CF92DF922D
:104B0000EF92FF920F931F93CF93DF93EC018B01F2
:104B10006A010E94E126811133C0C114D10439F029
:104B2000F60180819181081B190BC80FD91FE12C58
:104B3000F12C0115110519F18091E80085FD16C0D1
:104B40008091E8008E778093E800C114D10449F089
:104B5000F60180819181E80EF91EF182E08285E004
:104B60000FC00E94E126882321F30AC08991809317
:104B7000F10001501109FFEFEF1AFF0ADACF80E0D0
:104B8000DF91CF911F910F91FF90EF90DF90CF9029
:104B900008952091A8023091A9022617370748F0FE
:104BA0006115710539F42091E8002E772093E80013
:104BB00001C0B90140E061157105A9F12091A10280
:104BC000222309F443C0253009F442C02091E800B3
:104BD00023FD40C02091E80022FD32C02091E80072
:104BE00020FFE9CF4091F3002091F20030E0342B18
:104BF000FC01CF016115710559F02830310540F4F1
:104C000081918093F100615071092F5F3F4FF1CF87
:104C100041E02830310509F040E02091E8002E778E
:104C20002093E800C8CF4111C9CF0AC08091A102EA
:104C3000882361F0853061F08091E80083FD0AC02F
:104C40008091E80082FFF2CF80E0089582E008952D
:104C500083E0089581E008952091A8023091A9028F
:104C60002617370748F06115710539F42091E800DF
:104C70002E772093E80001C0B901FC0120E0611506
:104C8000710591F18091A102882309F440C085301B
:104C900009F43FC08091E80083FD3DC08091E800A9
:104CA00082FD2FC08091E80080FFE9CF2091F300C2
:104CB0008091F20090E0922B6115710559F08830D7
:104CC000910540F424912093F100319661507109CF
:104CD0000196F2CF21E0089709F020E08091E800EA
:104CE0008E778093E800CBCF2111CCCF0AC0809182
:104CF000A102882361F0853061F08091E80083FD96
:104D00000AC08091E80082FFF2CF80E0089582E03F
:104D1000089583E0089581E00895982F973058F51D
:104D20009093E900981739F07091EC002091ED0014
:104D30005091F00003C0242F762F50E021FF19C0BE
:104D40003091EB003E7F3093EB003091ED003D7FE2
:104D50003093ED003091EB0031603093EB007093B5
:104D6000EC002093ED005093F0002091EE0027FF1F
:104D700007C09F5FD3CF8F708093E90081E00895D3
:104D800080E008958091A20287FF11C08091E80021
:104D900082FD05C08091A1028111F8CF11C08091E0
:104DA000E8008B770BC08091A102882349F08091A5
:104DB000E80080FFF8CF8091E8008E778093E800CC
:104DC00008952091E4003091E50095E64091EC00D3
:104DD000842F817040FF22C08091E80080FD1CC0BC
:104DE0008091A102882391F0853091F08091EB00B1
:104DF00085FD10C04091E4005091E5004217530733
:104E000029F39A01915011F784E0089582E0089502
:104E100083E0089581E0089580E008954091E800DE
:104E200042FFDECF08950E9481270E948927E0EE8D
:104E3000F0E0808181608083E8EDF0E080818F7711
:104E4000808319BCA7EDB0E08C918E7F8C9380811C
:104E50008F7E80831092A00208950F931F93CF93AB
:104E6000DF930E9481270E948927C8EDD0E08881C6
:104E70008F77888388818068888388818F7D888305
:104E800019BC1092A10210929D0210929F021092E2
:104E90009E0200EE10E0F80180818B7F8083888184
:104EA0008160888342E060E080E00E948D26E1EE30
:104EB000F0E080818E7F8083E2EEF0E0808181608F
:104EC0008083808188608083F80180818E7F8083E9
:104ED000888180618883DF91CF911F910F91089520
:104EE000E8EDF0E080818F7E8083E7EDF0E0808167
:104EF0008160808384E082BF81E08093A0020C9473
:104F00002D27E8EDF0E080818E7F80831092E20013
:104F100008951092DA001092E10008951F920F9206
:104F20000FB60F9211242F933F934F935F936F937C
:104F30007F938F939F93AF93BF93EF93FF93809152
:104F4000E10082FF0BC08091E20082FF07C08091E8
:104F5000E1008B7F8093E1000E94FE298091DA00BE
:104F600080FF1FC08091D80080FF1BC08091DA00B5
:104F70008E7F8093DA008091D90080FF0DC080E1A0
:104F800089BD82E189BD09B400FEFDCF81E0809337
:104F9000A1020E94D82305C019BC1092A1020E9450
:104FA000E6238091E10080FF19C08091E20080FF3C
:104FB00015C08091E2008E7F8093E2008091E20034
:104FC00080618093E2008091D80080628093D80055
:104FD00019BC85E08093A1020E94EA238091E10040
:104FE00084FF30C08091E20084FF2CC080E189BD45
:104FF00082E189BD09B400FEFDCF8091D8008F7D8C
:105000008093D8008091E1008F7E8093E1008091B1
:10501000E2008F7E8093E2008091E20081608093C5
:10502000E20080919D02882311F084E007C0809106
:10503000E30087FD02C081E001C083E08093A1020C
:105040000E94EB238091E10083FF29C08091E20060
:1050500083FF25C08091E100877F8093E10082E09B
:105060008093A10210929D028091E1008E7F809337
:10507000E1008091E2008E7F8093E2008091E20067
:1050800080618093E20042E060E080E00E948D2633
:105090008091F00088608093F0000E94E923FF91E6
:1050A000EF91BF91AF919F918F917F916F915F91A0
:1050B0004F913F912F910F900FBE0F901F90189519
:1050C0001F920F920FB60F9211242F933F934F937D
:1050D0005F936F937F938F939F93AF93BF93CF9380
:1050E000DF93EF93FF93C091E900CF708091EC00C4
:1050F000D82FD17080FDD0E81092E9008091F000A7
:10510000877F8093F00078940E94A4281092E90091
:105110008091F00088608093F000CD2BCF70C09319
:10512000E900FF91EF91DF91CF91BF91AF919F91F6
:105130008F917F916F915F914F913F912F910F9040
:105140000FBE0F901F9018951F93CF93DF93CDB78D
:10515000DEB7AA970FB6F894DEBF0FBECDBFE2EA66
:10516000F2E088E08E0F9091F10091938E13FBCFC7
:105170000E9401248091E80083FF28C18091A2024F
:105180009091A302492F50E04A30510508F01EC10A
:10519000FA01E556FF4F0C94BD2D803821F082387E
:1051A00009F014C108C080919E0290919F0299233A
:1051B00089F082600FC08091A6028F70873008F05E
:1051C00005C18093E9008091EB0085FB882780F979
:1051D0001092E9009091E800977F9093E800809307
:1051E000F1001092F100D0C0282F2D7F09F0EEC001
:1051F000882319F0823061F0E9C08091A4028130E7
:1052000009F0E4C0933009F080E080939F022EC043
:105210008091A40281112AC08091A6028F702FEF85
:10522000280F263008F0D2C08093E9002091EB00CF
:1052300020FF1CC0933021F48091EB00806214C0E9
:105240009091EB0090619093EB0021E030E0A90198
:1052500002C0440F551F8A95E2F74093EA0010926E
:10526000EA008091EB0088608093EB001092E900E7
:105270008091E800877F8093E8000E94C226A6C044
:105280008111A4C01091A4021F778091E30080785F
:10529000812B8093E3008091E800877F8093E80072
:1052A0000E94C2268091E80080FFFCCF8091E3003D
:1052B00080688093E300111102C082E001C083E0A6
:1052C0008093A10283C08058823008F07FC0809113
:1052D000A4029091A5028C3D53E0950779F583E0F7
:1052E0008A838AE289834FB7F894DE01139620E01F
:1052F0003EE051E2E32FF0E050935700E49120FFAD
:1053000003C0E295EF703F5FEF708E2F90E0EA30C0
:1053100010F0C79601C0C0968D939D932F5F2431E6
:1053200049F74FBF8091E800877F8093E8006AE2E9
:1053300070E0CE0101960E94C92515C06091A602B9
:105340007091A702AE014F5F5F4F0E94F024BC0135
:10535000892BE1F19091E800977F9093E800898193
:105360009A810E942C268091E8008B778093E80038
:105370002DC0803859F58091E800877F8093E80040
:1053800080919D028093F1008091E8008E7773CF29
:1053900081111CC09091A4029230C0F48091E80069
:1053A000877F8093E80090939D020E94C22680919F
:1053B0009D02811106C08091E30087FD02C081E05B
:1053C00001C084E08093A1020E94ED238091E80057
:1053D00083FF0AC08091E800877F8093E800809176
:1053E000EB0080628093EB00AA960FB6F894DEBFC4
:1053F0000FBECDBFDF91CF911F9108950895CF9338
:105400008091A1028823A1F0C091E900CF70909112
:10541000EC00892F817090FD80E8C82B1092E90084
:105420008091E80083FD0E94A428CF70C093E9001A
:10543000CF9108955058BB27AA270E94322A0C9476
:10544000DD2B0E94CF2B38F00E94D62B20F039F4B0
:105450009F3F19F426F40C94A52B0EF4E095E7FB7E
:105460000C949F2BE92F0E94EE2B58F3BA1762077A
:1054700073078407950720F079F4A6F50C94102C97
:105480000EF4E0950B2EBA2FA02D0B01B90190015F
:105490000C01CA01A0011124FF27591B99F0593FA3
:1054A00050F4503E68F11A16F040A22F232F342FEB
:1054B0004427585FF3CF469537952795A795F04039
:1054C0005395C9F77EF41F16BA0B620B730B840B4E
:1054D000BAF09150A1F0FF0FBB1F661F771F881F06
:1054E000C2F70EC0BA0F621F731F841F48F487955E
:1054F00077956795B795F7959E3F08F0B0CF939550
:10550000880F08F09927EE0F9795879508950E94C8
:105510009B2A0C94DD2B0E94D62B58F00E94CF2B97
:1055200040F029F45F3F29F00C949F2B51110C940B
:10553000112C0C94A52B0E94EE2B68F39923B1F348
:10554000552391F3951B550BBB27AA2762177307A9
:10555000840738F09F5F5F4F220F331F441FAA1F3D
:10556000A9F335D00E2E3AF0E0E832D091505040F9
:10557000E695001CCAF72BD0FE2F29D0660F771FA7
:10558000881FBB1F261737074807AB07B0E809F08D
:10559000BB0B802DBF01FF2793585F4F3AF09E3F12
:1055A000510578F00C949F2B0C94112C5F3FE4F381
:1055B000983ED4F3869577956795B795F7959F5F55
:1055C000C9F7880F911D9695879597F90895E1E0A1
:1055D000660F771F881FBB1F621773078407BA0700
:1055E00020F0621B730B840BBA0BEE1F88F7E0955B
:1055F000089529F416F00C949F2B0C94102C0C9405
:10560000A52B0E94F62BA8F39638A0F707F80F9267
:10561000E8942BE33AEA48EB5FE70E94A32C0F9251
:105620000F920F924DB75EB70F920E94592CEAE489
:10563000F1E00E94A82B4F915F91EF91FF91E595CA
:10564000EE1FFF1F49F0FE57E0684427EE0F441F8E
:10565000FA95E1F74195550B0E94232C0F9007FE18
:105660000C94172C08950E94F62B88F09F5798F001
:10567000B92F9927B751B0F0E1F0660F771F881F57
:10568000991F1AF0BA95C9F714C0B13091F00E9471
:10569000102CB1E008950C94102C672F782F8827D8
:1056A000B85F39F0B93FCCF3869577956795B39598
:1056B000D9F73EF490958095709561957F4F8F4F07
:1056C0009F4F0895E89409C097FB3EF4909580950C
:1056D000709561957F4F8F4F9F4F9923A9F0F92FB8
:1056E00096E9BB279395F695879577956795B79536
:1056F000F111F8CFFAF4BB0F11F460FF1BC06F5F1C
:105700007F4F8F4F9F4F16C0882311F096E911C02D
:10571000772321F09EE8872F762F05C0662371F04E
:1057200096E8862F70E060E02AF09A95660F771F62
:10573000881FDAF7880F9695879597F9089597F956
:105740009F6780E870E060E008959FEF80EC089527
:10575000DF93CF931F930F93FF92EF92DF927B0122
:105760008C01689406C0DA2EEF010E94A02CFE0185
:10577000E894A5912591359145915591A6F3EF01B6
:105780000E94322AFE019701A801DA9469F7DF909E
:10579000EF90FF900F911F91CF91DF91089500241A
:1057A0000A941616170618060906089500240A9486
:1057B00012161306140605060895092E0394000C0C
:1057C00011F4882352F0BB0F40F4BF2B11F460FF9B
:1057D00004C06F5F7F4F8F4F9F4F089557FD9058C4
:1057E000440F551F59F05F3F71F04795880F97FBA5
:1057F000991F61F09F3F79F087950895121613065F
:105800001406551FF2CF4695F1DF08C0161617068D
:105810001806991FF1CF86957105610508940895C2
:10582000E894BB2766277727CB0197F908959B015A
:10583000AC0160E070E080E89FE30C94872A0C9450
:105840009F2B0C94022D0E94F62BD8F39923C9F3B9
:10585000940F511DA3F39150504094F059F08823B8
:1058600032F0660F771F881F91505040C1F79E3F5E
:1058700051052CF7880F911D9695879597F90895F6
:105880005F3FACF0983E9CF0BB2786957795679577
:10589000B79508F4B1609395C1F7BB0F58F711F4B1
:1058A00060FFE8CF6F5F7F4F8F4F9F4FE3CF0C9428
:1058B000112CFA01DC01AA0FBB1F9B01AC01BF57E1
:1058C00028F4222733274427507820C0B75190F47A
:1058D000AB2F0024469537952795011CA395D2F34D
:1058E000002071F0220F331F441FB395DAF30ED05E
:1058F0000C941A2A61307105A0E88A07B94630F481
:105900009B01AC016627772788279078309621F095
:10591000208331834283538308950E94A02C0C94EA
:10592000DD2B0E94CF2B38F00E94D62B20F0952340
:1059300011F00C949F2B0C94A52B11240C94112C7A
:105940000E94EE2B70F3959FC1F3950F50E0551F09
:10595000629FF001729FBB27F00DB11D639FAA27C4
:10596000F00DB11DAA1F649F6627B00DA11D661F13
:10597000829F2227B00DA11D621F739FB00DA11D34
:10598000621F839FA00D611D221F749F3327A00DEE
:10599000611D231F849F600D211D822F762F6A2F8A
:1059A00011249F5750409AF0F1F088234AF0EE0FEF
:1059B000FF1FBB1F661F771F881F91505040A9F71C
:1059C0009E3F510580F00C949F2B0C94112C5F3F4F
:1059D000E4F3983ED4F3869577956795B795F79558
:1059E000E7959F5FC1F7FE2B880F911D96958795D0
:1059F00097F908959F930E94122D0F9007FCEE5F78
:105A00000C943B2D9F3F31F0915020F48795779572
:105A10006795B795880F911D9695879597F9089585
:105A20000C94A52B0E94F62BD8F3E894E0E0BB275A
:105A30009F57F0F02AED3FE049EC06C0EE0FBB0F98
:105A4000661F771F881F28F0B23A62077307840722
:105A500028F0B25A620B730B840BE3959A9572F798
:105A6000803830F49A95BB0F661F771F881FD2F7D6
:105A700090480C94042DEF93E0FF07C0A2EA2AEDB2
:105A80003FE049EC5FEB0E94322A0E94DD2B0F9031
:105A9000039401FC9058E2E7F1E00C944F2D9F93A2
:105AA0008F937F936F93FF93EF939B01AC010E94C1
:105AB0008D2CEF91FF910E94A82B2F913F914F9138
:105AC0005F910C948D2CDB018F939F930E94D22DBC
:105AD000BF91AF91A29F800D911DA39F900DB29F8A
