:100000000C9401030C9448030C9448030C9448038B
:100010000C9448030C9448030C9448030C94480334
:100020000C9448030C9448030C9434280C9406292F
:100030000C948E1E0C9448030C9448030C944803B3
:100040000C9448030C9448030C9448030C94480304
:100050000C9448030C94F61E0C9448030C9448032B
:100060000C9448030C9448030C9448030C944803E4
:100070000C9448030C9448030C9448030C944803D4
:100080000C9448030C9448030C9448030C944803C4
:100090000C9448030C9448030C9448030C944803B4
:1000A0000C9448030C9448030C944803B404B6041D
:1000B000C104B804BA04BC04BE04C004C304C5042B
:1000C000C704D204C904CB04CD04CF04D104D404A2
:1000D0000F140F14411441147F149F143416341656
:1000E000E11434168E158E150016091634162D16C9
:1000F0009B159B159B159B159B159B159B159B1580
:100100009B159B159B159B159B159B159B159B156F
:10011000AC15BA15C115C815D215C316C316D51618
:10012000D516CC16D516D516D516C316C316D116A8
:10013000D516D516D11673299A298C2A9A298C2A74
:10014000E629092A8C2A5F2A6E2A165C1E001F00E7
:100150002000210022002300240025002600270083
:100160002D002E002A002A002B00000014001A0087
:100170000800150017001C0018000C0012001300E6
:100180002F0030003100015100000400160007006C
:1001900009000A000B000D000E000F0033003400B0
:1001A00028000000E100E1001D001B00060019000E
:1001B0000500110010003600370038004A005200D8
:1001C0004C00E000E3000000E2002C0000002C00E6
:1001D00000002C000000E600E700500051004F0036
:1001E00035003A003B003C003D003E003F0040002F
:1001F00041004200430044004500000000000000B0
:1002000000004B0000000000005C00000000000047
:1002100000000000000000000000000001000000DD
:100220004E000000000000004A0000000000000036
:100230000000490000000000000000000000000075
:1002400000000000000000004D0000000000000061
:10025000C25CC55CC75CC95C000000000000000017
:100260000000000000000000000000000000C35C6F
:10027000C65CC85CCA5C00047F3F1F6432146432F1
:1002800014783C1E1E140A052223252628292A2C10
:100290002D2F3032333536383A3B3D3E40424345D0
:1002A00047494A4C4E5051535557595A5C5E60620B
:1002B000646668696B6D6F71737577797B7D7F811B
:1002C000838587898A8C8E90929496989A9C9E9F1B
:1002D000A1A3A5A7A8AAACAEAFB1B3B4B6B8B9BB39
:1002E000BCBEBFC1C2C3C5C6C7C9CACBCCCDCED0A8
:1002F000D1D2D2D3D4D5D6D7D7D8D9D9DADADBDB95
:10030000DBDCDCDCDCDCDDDDDDDDDCDCDCDCDCDB2B
:10031000DBDBDADAD9D9D8D7D7D6D5D4D3D2D2D174
:10032000D0CECDCCCBCAC9C7C6C5C3C2C1BFBEBC67
:10033000BBB9B8B6B4B3B1AFAEACAAA8A7A5A3A1D8
:100340009F9E9C9A98969492908E8C8A898785839A
:10035000817F7D7B79777573716F6D6B696866647A
:1003600062605E5C5A5957555351504E4C4A49474A
:10037000454342403E3D3B3A3836353332302F2DEF
:100380002C2A292826252322FFAA7F554000000079
:100390000000000000000001010101010101010154
:1003A0000202020202020202030303030303030424
:1003B00004040404050505050506060606060707E8
:1003C0000707080808080909090A0A0A0B0B0B0C99
:1003D0000C0C0D0D0D0E0E0E0F0F10101011111232
:1003E0001213131414151516161717181819191AAD
:1003F0001A1B1C1C1D1D1E1F1F202121222323240C
:10040000252526272828292A2B2C2C2D2E2F303144
:100410003132333435363738393A3B3C3D3E3F4054
:100420004142434445464748494B4C4D4E4F50523C
:100430005354555758595A5C5D5E606163646567F3
:10044000686A6B6C6E6F7172747677797A7C7D7F77
:100450008182848687898B8D8E9092949597999BC3
:100460009D9FA1A2A4A6A8AAACAEB0B2B4B6B9BBD7
:10047000BDBFC1C3C5C8CACCCED0D3D5D7DADCDEA8
:10048000E1E3E6E8EAEDEFF2F4F7F9FCFF0403300C
:100490000000000A0344005A00360030000000103B
:1004A000034B0042004400460061006E00730000F0
:1004B000000403090409023B00020100A0FA090438
:1004C0000000010301010009211101000122400087
:1004D0000705810308000A09040100010300000068
:1004E00009211101000122C0000705820320000A32
:1004F0001201100100000008EDFE6022010001025F
:10050000030105010902A10185020901A1000509F4
:10051000190129051500250195057501810295012F
:10052000750381010501093009311581257F950287
:100530007508810609381581257F950175088106A2
:10054000050C0A38021581257F950175088106C0C2
:10055000C005010980A10185031601002603001AC8
:1005600081002A8300751095018100C0050C0901E6
:10057000A1018504160100269C021A01002A9C0292
:10058000751095018100C005010906A101850505C9
:100590000719E029E7150025019508750181020575
:1005A00008190129059505750191029501750391B9
:1005B000010507190029EF1500250195F075018146
:1005C00002C005010906A101050719E029E7150088
:1005D00025019508750181029501750881010508BD
:1005E0001901290595057501910295017503910180
:1005F0000507190029FF150026FF009506750881DB
:1006000000C011241FBECFEFDAE0DEBFCDBF04B6BD
:1006100003FE27C08091A8029091A902A091AA028E
:10062000B091AB028730904BA740B04BD1F4109201
:10063000A8021092A9021092AA021092AB0214BE54
:1006400084B7877F84BF0FB6F894A8958091600027
:10065000886180936000109260000FBEE0E0F8E3D4
:10066000099511E0A0E0B1E0E2E2F7E502C00590F3
:100670000D92AC35B107D9F722E0ACE5B1E001C08D
:100680001D92A83AB207E1F70E9456250C948F2BD1
:100690000C9400000C94F308229A2A9A08950E9460
:1006A000F2080C944C0381FF02C02A9801C02A9AD8
:1006B0000C94230481E0089581E008950C945C0378
:1006C0001F93CF93DF9300D000D01F92CDB7DEB73A
:1006D00049835A832091960189819A81211112C000
:1006E000662349F00E94E81B182F682F89819A81A0
:1006F0000E948D1B03C00E94BC1B182F69817A8148
:10070000812F04C00E94E81B69817A810F900F90AD
:100710000F900F900F90DF91CF911F910C94450691
:10072000FC01408151816281738184810C9460035A
:100730000C944A03E82FE295EF70F0E032A1282FE5
:100740002F7081E090E001C0880F2A95EAF780952C
:10075000832382A30895CF92DF92EF92FF92863097
:1007600030F4811105C0909180009F7D04C085E028
:1007700090918000906290938000282F30E0AFEF3E
:10078000BFEF0E94202B25E030E040E050E00E94C7
:10079000F82A2C3784E138074105510530F4C901A6
:1007A00069E070E00E94D02A29C0DA01C9018A50AC
:1007B000974DAF4FBF4F6627782F892F9A2F25EF80
:1007C00038E241E050E00E94F82A69017A01CA014A
:1007D000B9010E94C02A9B01AC01C701B6010E9469
:1007E000C02ABB27A92F982F872F009721E0A207A7
:1007F000B10511F0BC0102C06FEF7FEF70938B0069
:1008000060938A00FF90EF90DF90CF900895269A32
:1008100086E30E949A0382E28093800089E18093BC
:1008200081008FEF9FEF90938700809386000C9458
:10083000D6220E94181D811102C00E94A51D0E948F
:1008400007040C944F0308950C94530308950E94D9
:10085000B3160E9426042FEF84E39CE021508040D1
:100860009040E1F700C000000C941C1F0F931F93F1
:10087000CF93DF938C010E949003EC01B8010E949A
:100880005E03882309F4F7C1B801CE010E947810F5
:10089000882309F4F0C1CA3CFCE5DF0741F4F80104
:1008A0008281882309F4E7C10E94D30CE4C1CB3CC8
:1008B0008CE5D80708F012C1C33C9CE5D90761F468
:1008C000F8018281882309F4D6C10E94681C8272D3
:1008D000E1F00E94EC0ECFC1C43CECE5DE07C0F0B5
:1008E000C63C9CE5D90709F4CAC008F0DCC0C43C8A
:1008F000FCE5DF0709F0CBC0F8018281882309F409
:10090000BAC10E94681C827221F30E94DF0EB3C13B
:10091000C531FCE5DF0708F07BC0C2308CE5D807A5
:1009200008F452C0F8018281882309F454C00E945F
:10093000181D811102C00E94A51D0E94351D90E066
:100940009093990280939802FE01E350FC45E231B6
:10095000F10530F4EA5AFF4F809198020C941A2B5B
:1009600080919802816027C0826025C0846023C086
:10097000806121C080621FC080641DC080681BC070
:100980008460886018C08E7F16C08D7F14C08B7FF6
:1009900012C08F7E10C08F7D0EC08F7B0CC08F77F2
:1009A0000AC08B7F877F07C087FB222720F991E051
:1009B000922790FB87F980939802809198020E9479
:1009C000391D0E94B31657C1C1159CE5D90751F0D6
:1009D000C130DC4579F0C801DF91CF911F910F91B3
:1009E0000C945A03F8018281882309F444C10E94BF
:1009F000270441C1F8018281882309F43CC1809118
:100A00002E02982F909590FB80F980932E0233C18F
:100A1000C631FCE5DF0739F50E94681C282FF80174
:100A200082814091100150911101882379F02A7A36
:100A300091E009F490E090935C01911102C069E2A9
:100A400001C065E3CA010E940C1E0AC080915C01CE
:100A5000811102C069E201C065E3CA010E94171E4C
:100A60000E94B41C08C1C23CDC4509F0B4CFF801B7
:100A70008281882309F4FFC00E94FA0EFCC0F801AD
:100A80008281882309F4F7C00E94970CF4C0C53C0A
:100A9000DC4509F0A0CFF8018281882309F4EBC07E
:100AA0000E948A0CE8C0F8018281C83CFCE5DF079F
:100AB00031F4882309F4DFC00E94B50CDCC0C93CC6
:100AC000DC4530F4882309F4D6C00E94A60CD3C0BC
:100AD000882309F4D0C00E94C40CCDC0C13DECE510
:100AE000DE0791F4F8018281882309F4C4C00E94D2
:100AF000050B8F3028F00E94050B843108F405CFD8
:100B00008FE00E94EF0EB7C0C23DFCE5DF0708F0A2
:100B10005AC0CD3C8CE5D80739F4F801828188238E
:100B200009F4A9C081E0EDCFCE3C9CE5D907C0F423
:100B3000CB3CECE5DE0741F4F8018281882309F41F
:100B40009AC00E940D0B97C0CC3CDC4509F043CF06
:100B5000F8018281882309F48EC00E941E0B8BC08D
:100B6000F8018281CF3CFCE5DF0771F4882309F4AA
:100B700082C00E94050B863028F00E94050B883049
:100B800008F4C3CE86E0BDCFC03DDC4570F48823B9
:100B900009F471C00E94050B823028F00E94050BF9
:100BA000853008F4B2CE82E0ACCF882309F463C06C
:100BB0000E94050B893028F00E94050B8E3008F446
:100BC000A4CE89E09ECFC53DECE5DE0739F4F801FF
:100BD0008281882309F44FC083E293CFC63DFCE5B0
:100BE000DF0740F5F8018281C33DFCE5DF0729F40A
:100BF000882309F440C088E184CFC43DDC4568F413
:100C00008823C9F10E94050B853128F00E94050B4D
:100C1000873108F47ACE85E174CF882361F10E9490
:100C2000050B893128F00E94050B823208F46DCE45
:100C300089E167CFCD3DECE5DE0741F4F801828123
:100C40008823C9F082E00E94F72515C0CE3DFCE55F
:100C5000DF0739F4F8018281882369F00E94A51D1D
:100C60000AC0CC3DDC4509F0B6CEF801828188236C
:100C700011F080E0E8CF80E0DF91CF911F910F91DC
:100C8000089580E090E0089508959FE0799FF00135
:100C900011249BE4899FE00DF11D1124E60FF11D45
:100CA000EE0FFF1FE65BFE4F859194910895880F2C
:100CB000991FFC01EA58FD4F859194910895CF93B7
:100CC000DF930E9445060E945208EC01811521E540
:100CD000920708F042C0811560E5960708F031C11F
:100CE000883E910500F5803E910508F0D7C1883A0D
:100CF000910570F4853A910508F0A6C08130910500
:100D000009F4CCC108F47DC1049708F0C7C179C1CA
:100D10008F3B910508F4A3C0803C910508F471C194
:100D2000805C9109FDC0C11580E3D80780F4C1152E
:100D300090E2D90708F0F2C0C03FD10508F461C1C4
:100D4000CF3FD10511F008F0A9C1D065A7C1C115E9
:100D500020E4D20708F0F2C0E7C0811569E59607E4
:100D600060F5C11588E5D80708F037C1C11594E5CD
:100D7000D90778F4C11523E5D20708F013C1C115CE
:100D800062E5D60708F0F8C0DC2FCC27C16FD06A27
:100D900085C1C11585E5D80708F41AC1C11596E5C6
:100DA000D90708F02EC18C2F0E94CF088F71C82F51
:100DB000D0E0DC2FCC27D06271C18D3B2CE59207AF
:100DC00009F416C1F0F4CB3B8CE5D80709F40AC14D
:100DD00008F00BC1C1152AE5D20708F012C18C2F0B
:100DE0008F700E94CF0894E0D695C7959A95E1F749
:100DF000CF70D0E0DC2FCC27D06A8F70806EC82BEC
:100E00004DC1803C9C4509F4F9C0C13C8CE5D80734
:100E100060F4CE3B9CE5D90709F4EDC0CF3BDC453F
:100E200009F0EFC0C0E0D2ED39C1CE019056811576
:100E3000904208F0E6C08D2F8F710E94CF08DD2709
:100E4000D0628F71D82B2AC1853A910509F4DCC094
:100E5000863A910509F0DBC0C2E8D0E41FC1883AA8
:100E6000910509F4D7C0893A910509F4D6C08A3AA8
:100E7000910509F4D5C08B3A910509F4D4C08C3A98
:100E8000910509F4D3C08B3B910509F4D2C08C3B8A
:100E9000910509F4D1C08D3A910509F4D0C0803B89
:100EA000910509F4CFC08E3A910509F4CEC08F3A6E
:100EB000910509F4CDC0813B910509F4CCC0823B7A
:100EC000910509F4CBC0833B910509F4CAC0843B6A
:100ED000910509F4C9C0853B910509F4C8C0863B5A
:100EE000910509F4C7C0873B910509F4C6C0883B4A
:100EF000910509F4C5C0893B910509F4C4C08D3B37
:100F0000910509F4C3C08E3B910509F4C2C08A3B28
:100F1000910509F4C1C0C0E0D4E4C0C0CE019F7007
:100F20000E945706EC01BAC0CE019927D3FF03C037
:100F3000EC01D86CB3C0EC01D06CB0C0DF70D06AEB
:100F4000ADC0837021E030E002C0220F331F8A95CC
:100F5000E2F73C68CE0174E0969587957A95E1F7C3
:100F60008370382BCF70C695C69580E2C89FE0018C
:100F70001124C22BD32B92C04C2F4695469590E25C
:100F8000499FA0011124C370DD2721E030E0C90191
:100F900002C0880F991FCA95E2F7EC01C42BD52B2C
:100FA000DC687CC04C2F4695469580E2489FA001A6
:100FB0001124C370DD2721E030E0C90102C0880F91
:100FC000991FCA95E2F7EC01C42BD52BDA6866C0ED
:100FD000DC2FCC27C46FD06A61C0DC2FCC27C06F58
:100FE000D06A5CC0C0E0D4ED59C0C0E0D5ED56C0B9
:100FF000C0E0D1ED53C0C0E0D0ED50C0C0E0D3EDB3
:101000004DC0C0E0D0E04AC0C1E8D0E447C0C3E86A
:10101000D0E444C0C2EED4E441C0C9EED4E43EC042
:10102000CAEED4E43BC0C5EBD4E438C0C6EBD4E48C
:1010300035C0C3EBD4E432C0C4EBD4E42FC0C7EB5B
:10104000D4E42CC0CCECD4E429C0CDECD4E426C04C
:10105000C3E8D5E423C0CAE8D5E420C0C2E9D5E49A
:101060001DC0C4E9D5E41AC0C1E2D6E417C0C3E28A
:10107000D6E414C0C4E2D6E411C0C5E2D6E40EC082
:10108000C6E2D6E40BC0C7E2D6E408C0CFE6D4E49B
:1010900005C0C0E7D4E402C0CAE2D6E4CE01DF91C5
:1010A000CF9108958238910549F1B0F481339105CB
:1010B00009F458C048F48932910509F44EC08A32C7
:1010C000910509F454C008958533910509F440C091
:1010D0008933910599F00895833E910529F138F4FB
:1010E000803E910591F0823E9105A1F00895863EE3
:1010F0009105F9F0873E910531F10895209198020C
:1011000020FD3AC021FD38C008958091980280FDED
:1011100035C032C08091980282FF32C0809198021F
:1011200084FD30C083EE39C08091980282FD28C0D2
:10113000F5CF8091980283FF27C08091980284FDAB
:1011400021C087EE2AC08091980283FD1DC0F5CF93
:101150008091980285FD1AC01BC08091980285FD80
:1011600017C014C08091980286FD14C015C08091EC
:10117000980286FD11C00EC080EE0FC089E30DC03D
:1011800082EE0BC080E009C086EE07C089E205C090
:1011900085E303C08AE201C081E390E00895909165
:1011A000980292FF0DC0282F2871283019F4877FEC
:1011B000846006C0282F2471243011F48B7F88604E
:1011C00093FF0DC0282F2871283119F4877E846180
:1011D00006C0282F2471243111F48B7E886194FD80
:1011E000877E089508950895E82FF0E0EE0FFF1F21
:1011F000E35AFE4F8081918108950895E2E3F1E082
:1012000041E050E025E02E0F9191A92FA295AF70FB
:10121000B0E091963C9191979F70BA0102C0660F21
:10122000771F9A95E2F7CB018095832391968C9353
:101230002E13EACFA3E2B1E041E050E02FE02A0F05
:101240008D91E82FE295EF70F0E031A18F70BA0137
:1012500002C0660F771F8A95E2F7CB01962F909513
:10126000932391A392A1892B82A32A13E9CFE7E6C6
:10127000F1E0ADE5B1E0119211921D921D9271E085
:10128000E137F707C1F785E00E94E0090C941904E3
:101290004F925F927F928F929F92AF92BF92CF9226
:1012A000DF92EF92FF920F931F93CF93DF9322E38E
:1012B000422E21E0522EA7E6B1E020E001E010E04E
:1012C0005D018D909C90119711961C921E92E201E7
:1012D00089912E01E82FE295EF70F0E031A18F7037
:1012E000A80102C0440F551F8A95E2F7CA01342BAA
:1012F00031A342A1382F3095432342A350EA5A9597
:10130000F1F793E2C92E91E0D92E40E050E0E601DA
:1013100079906E01672D62956F7070E0EB01E8A027
:101320006D917C911197F12CD72DDF7002C0F5944F
:10133000E794DA95E2F7E0FC08C07801042E02C0D9
:10134000EE0CFF1C0A94E2F702C0E12CF12C6E298E
:101350007F2911967C936E934F5F5F4F4F305105FD
:10136000B1F691A1392331A392A1892B82A31296C0
:1013700081E0F501408151818416950609F480E0F1
:10138000282BF1E0A137BF0709F09ACF45E06DE5C2
:1013900071E087E691E00E94E1090E94980381E0F4
:1013A000DF91CF911F910F91FF90EF90DF90CF9041
:1013B000BF90AF909F908F907F905F904F900895D7
:1013C0000895FF920F931F93CF93DF93F82E092F69
:1013D000162FD72FC42F222349F081E08093730169
:1013E0000E94C01E909372018093710180917301DD
:1013F0008823D9F080917101909172010E94CC1ED6
:10140000069798F0EF2DF02FA12FBD2F80E090E0F0
:101410004C2F50E08417950734F4219131912D938E
:101420003D930196F7CF10927301DF91CF911F91F9
:101430000F91FF900895CF92DF92EF92FF920F935A
:101440001F93CF93DF937B01282F382FE82FF0E0F5
:10145000F11006C0E357FC4F6491762F862F7BC0B6
:101460000F2D10E046E0649FC0011124CFEFD0E0C3
:10147000BE010E94D02AAB016BEA6403C001659FE4
:10148000900D11248E0D911D8E0D911D982F990F89
:10149000980FBE01601B710B6E9FD0016F9FB00D46
:1014A0007E9FB00D11248B2F9F9DB0011124672FBB
:1014B00077277E01E61AF70AB7016E9F70016F9FCA
:1014C000F00C7E9FF00C11246E01C91AD108C09E49
:1014D000B001C19E700DD09E700D1124672F77272B
:1014E000C61BD70BCE9F8001CF9F100DDE9F100D26
:1014F0001124712F4230510591F04CF441155105E2
:10150000D9F041305105B1F4722F2F2D15C0443060
:10151000510561F044F04630510571F00BC02B2F9E
:10152000812F732F09C07F2D2B2F02C0212F7B2FDE
:10153000832F02C07B2F8F2DE22FF0E0E357FC4F6B
:101540006491E72FF0E0E357FC4F7491E82FF0E04F
:10155000E357FC4F8491DF91CF911F910F91FF9042
:10156000EF90DF90CF9008950895CF93DF93762F7B
:10157000E901682F842F0E941B0A698378838A837C
:10158000DF91CF91089580915D02282F269530E05C
:101590002115310519F48170826005C025323105AD
:1015A00024F08170886480935D02089588E090E063
:1015B0000C944F2BCF93DF9300D000D0CDB7DEB784
:1015C000AB01BC0149835A836B837C830E94C30AAD
:1015D00049815A816B817C8188E090E00F900F9067
:1015E0000F900F90DF91CF910C946D2BEDE5F2E011
:1015F00083E0808311828FEF8283838314826081F2
:101600007181828193810C94DA0A80915D0280FF5E
:1016100002C08695089580E008958091610283302C
:1016200018F48F5F8093610260915D0270915E0299
:1016300080915F02909160020C94DA0A80916102BD
:10164000882319F081508093610260915D0270914E
:101650005E0280915F02909160020C94DA0A6091C0
:10166000040170E080915D0280FF0AC080917801E2
:1016700023E0829FC00111248E599D4F0C940810C5
:101680008091770190910301891780F7E82FF0E0AE
:101690009F01220F331FE20FF31FEE59FD4F1182FE
:1016A000108212828F5FF0CF90915D0290FF16C082
:1016B0009091770120910301921770F4E92FF0E0E7
:1016C000DF01AA0FBB1FEA0FFB1FEE59FD4F8183FD
:1016D000608342839F5FF0CF0C942F0B0895CF93CC
:1016E000DF9300D01F92CDB7DEB790915D0290FFDF
:1016F0000AC09E012F5F3F4F0E94B50A4B8169814E
:101700008A810E94540B0F900F900F90DF91CF9120
:101710000895CF93DF93EC01EC81F0E0E857FD4FA3
:101720004491EDE5F2E0628181810E946F0B8C8132
:101730008F5F8C83DF91CF910895CF93DF93EC017E
:10174000EDE5F2E0438162818C810E946F0B8C8118
:101750008F5F8C83DF91CF9108950F931F93CF9369
:10176000DF9300D01F92CDB7DEB78C01809174015A
:1017700081110AC09E012F5F3F4F4FEF6FEF0E9414
:10178000B50A8A8180937401F8018481813051F017
:1017900028F0823061F4409174010AC08091740194
:1017A00040E007C06091740140E080E003C040E089
:1017B00080E060E00E94540BF801248130E0C90110
:1017C000019663E070E00E94E42A84830F900F90FA
:1017D0000F90DF91CF911F910F910895AF92BF921B
:1017E000CF92DF92EF92FF920F931F93CF93DF93ED
:1017F00000D01F92CDB7DEB7182FF62E042FE22EA1
:1018000090915D0290FF6EC0E92FE695AE2FB0E09B
:10181000A95CBE4F8C91809380019E7F923061F4D1
:101820009E012F5F3F4F812F0E94B50A4B81698136
:101830008A810E94540B44C0823019F400916002E6
:101840003FC0863019F410915E023AC08930D9F356
:101850008931B1F5E9518E2F8170D82EE695F0E0EF
:10186000E857FC4FA590B490C12CBB2460910201B5
:10187000C61620F5EC2DF0E0EA9DC001EB9D900D21
:10188000FA9D900D112470E00E94D02A812FD11072
:1018900002C0860F01C0861B90917701E90FF11DF0
:1018A0009F01220F331FE20FF31F9F012E593D4F5F
:1018B000402F6F2D0E94B50AC394D8CF0E942F0BE2
:1018C00010935E02F0925F0200936002EE2051F0EE
:1018D00060915D0270915E0280915F029091600262
:1018E0000E94DA0A0F900F900F90DF91CF911F9115
:1018F0000F91FF90EF90DF90CF90BF90AF90089541
:10190000EDE5F2E09181282F4381628188E0890F23
:101910000C94EE0B81E00C94800CEDE5F2E09181EB
:10192000282F4381628188EF890F0C94EE0B81E0B0
:101930000C948D0CEDE5F2E0628128E0620F08F472
:101940006FEF282F438181810C94EE0B81E00C9482
:101950009A0CEDE5F2E0628128E0621B08F460E099
:10196000282F438181810C94EE0B81E00C94A90C0B
:10197000EDE5F2E0438128E0420F08F44FEF282F15
:10198000628181810C94EE0B81E00C94B80CEDE542
:10199000F2E0438128E0421B08F440E0282F6281F6
:1019A00081810C94EE0B81E00C94C70C20E00C9428
:1019B000EE0BFF920F931F93CF93DF93EC01F12C6B
:1019C0000FEF10E060910201F616E8F42091770124
:1019D00030E02F0D311DC901880F991F280F391FC5
:1019E0002E593D4F70E0C8010E94E42A962F8C8149
:1019F0004091600260915F02F99E800D11240E9467
:101A0000B50AF394DFCF0E942F0B9A818C8190FF4F
:101A100002C08F5F01C081508C83DF91CF911F91F5
:101A20000F91FF900895BF92CF92DF92EF92FF92B5
:101A30000F931F93CF93DF93FC01828180FF02C03D
:101A40000FEF01C001E010E0809102011817E0F5EE
:101A5000C12ED12C80917701E601C80FD11DCE0196
:101A6000880F991FC80FD91FCE59DD4F19821882D0
:101A70001A8234E0E32EF12CB12C809176018B0D8B
:101A800087FF03C090910201890F082E000C990B6B
:101A9000C816D90691F4809160028E9DA0018F9D99
:101AA000500D112455954795559547959E01609188
:101AB0005F0280915E020E94B50AB00EF1E0EF1A5B
:101AC000F108D9F61F5FC0CF0E942F0B80917601DD
:101AD000013031F4811102C080910201815007C0B0
:101AE00090E001966091020170E00E94E42A8093E8
:101AF0007601DF91CF911F910F91FF90EF90DF90D2
:101B0000CF90BF900895CF9380917701909103017A
:101B1000891770F4E82FF0E09F01220F331FE20FC6
:101B2000F31FEE59FD4F1182108212828F5FF0CFAA
:101B3000C0E060910201C617B8F5EC2FF0E070E04C
:101B4000CF010E94E42A40917701480F80917501EE
:101B5000082E000C990B50E0E817F907C4F020910B
:101B60000101022E000C330B2E173F0784F09A015F
:101B7000220F331F240F351F2E593D4F4091600215
:101B800060915F0280915E020E94B50A0BC0FA016B
:101B9000EE0FFF1F4E0F5F1FFA01EE59FD4F11822E
:101BA00010821282CF5FC5CF0E942F0B20910001BF
:101BB00080917501820F8093750190910101920FC0
:101BC0009093010119165CF4082E000C990B4091BA
:101BD000020150E041505109841795071CF02195EE
:101BE00020930001CF9108950F931F93CF93DF931C
:101BF0008C01FC01848195810196817099279583E0
:101C00008483C0E0D5E580910201C817F8F42091E3
:101C1000770130E02C0F311DC901880F991F280F63
:101C2000391F2E593D4F4C2F4695F80184819581DF
:101C3000840F911D81704091600260915F028D9FC1
:101C4000802D11240E94B50ACF5FDDCFDF91CF91A7
:101C50001F910F910C942F0B0F931F93CF93DF9332
:101C6000EC0100E010E080910201282F30E0021723
:101C7000130724F5909177019801290F311DA901CF
:101C8000440F551F240F351F2E593D4F869590E068
:101C90004C81081719071CF4442331F002C041118C
:101CA00003C04091600201C040E060915F028091FA
:101CB0005E020E94B50A0F5F1F4FD5CF0E942F0B07
:101CC0002C8130E02F5F3F4F217033272C83DF9131
:101CD000CF911F910F910895EDE5F2E080818E7F05
:101CE000808360817181828193810E94DA0A1092DF
:101CF00081012FEF80E792E0215080409040E1F792
:101D000000C000000C942F0B60915D02669570E09E
:101D10004BE050E085E091E00E943A2B892B19F4CA
:101D200081E0809381010E94C01E90937A0180938C
:101D30007901089590915D0290FF35C091708111F5
:101D400002C0926006C0853210F0986402C0880F0D
:101D5000982B90935D02662351F060915D02709123
:101D60005E0280915F02909160020E94DA0A6091A7
:101D70005D02669570E04BE050E085E091E00E94E6
:101D80003A2B892B19F01092810102C00E94840E17
:101D900081E080937C014091600260915F028091BC
:101DA0005E020C94D60C0895682F90915D02969572
:101DB00081E0890F853208F081E00C949A0E81E071
:101DC0000C94D40E682F90915D0296958FEF890F39
:101DD00009F484E20C949A0E81E00C94E20E61E026
:101DE0000C949A0EEDE5F2E0808181608083869507
:101DF0000C94EF0E80915D0280FD0C946C0E0C949F
:101E0000F20E60E00C949A0E80917F01811133C034
:101E100080912E02816080932E020E94181D8111F4
:101E200004C00E94A51D0E94F60A0E94D60A609373
:101E30005D0270935E0280935F02909360026E7FFA
:101E400061F40E94F60A0E94D60A60935D027093C4
:101E50005E0280935F02909360020E94C30A109218
:101E6000810180915D0280FF03C086950E94010F71
:101E700081E080937F0108950F931F93CF93DF93A9
:101E800080918101882309F48CC080918001E091C8
:101E90005D02E695E81BE0937B01823049F4F0E0B7
:101EA000EC57FD4FE491CE2FD0E009E81BE049C08C
:101EB000863049F4F0E0EF57FD4FE491CE2FD0E0AB
:101EC0000DE91BE03EC0893051F4E695F0E0E258A0
:101ED000FD4FE491CE2FD0E009ED1CE032C08F30F1
:101EE00051F4E695F0E0E558FD4FE491CE2FD0E0B7
:101EF00003E11DE026C0853149F4F0E0E858FD4FCC
:101F0000E491CE2FD0E003E81DE01BC0883181F0C2
:101F1000833239F4E6E7F2E0C591D4910DEA1BE093
:101F200010C0843251F4C4EFD1E00CE21EE009C0CD
:101F3000C8EED3E004EF1DE004C0C0EDD7E004EB31
:101F40001AE080917C01882389F010927C010E9424
:101F5000C01E9E0120953095820F931F90937A01A9
:101F60008093790110927E0110927D018091790118
:101F700090917A010E94CC1E8C179D0790F0E09101
:101F80007901F0917A01CE0FDF1FD0937A01C093CF
:101F9000790189E791E0F801DF91CF911F910F91CD
:101FA0000994DF91CF911F910F9108952EB1342F95
:101FB000309523233EB1432B3FB7F894FC01680FC3
:101FC000791FE617F70789F0819198E04EB9000074
:101FD00000C087FF2EB9880F000000C000C000C0FD
:101FE0002EB900C09A9591F7ECCF3FBF08952DB15F
:101FF000242B2DB99B01220F331F620F731F0E94E8
:10200000D60F87EC90E00197F1F700C0000008952B
:1020100044E00C94F70F0F931F93CF93DF93C62FD9
:10202000D42F022FFC0182818823C9F060938401A0
:102030000E94C01E909383018093820180E28C0FE6
:10204000883008F050C0C77081E001C0880FCA9581
:10205000EAF7DF91CF911F910F910C94CB13109160
:102060008401161330C080918201909183010E94F7
:10207000CC1E883C910538F5C0E2CD0F1D17B9F094
:1020800080E2810F883040F4177081E001C0880F32
:102090001A95EAF70E94D213C83048F481E09D2FC8
:1020A000977001C0880F9A95EAF70E94CB13802F92
:1020B0000E94B813C830B8F4D77081E001C0880F0F
:1020C000DA95EAF70AC080E28C0F883060F4C770B6
:1020D00081E001C0880FCA95EAF7DF91CF911F9187
:1020E0000F910C94D213DF91CF911F910F9108950E
:1020F0009C01CB01203F4CE53407F9F078F4283DF2
:10210000FCE53F07B9F0293D4CE5340711F1273DC7
:102110003C4531F526E241EE61EE1EC0223FFCE572
:102120003F0799F070F0233F3C45D1F427E245EE9C
:1021300066EE12C027E245EE0EC026E241EE60EEEA
:102140000BC027E245EE64EE07C026E241EE62EEE8
:1021500003C028E241E065EE0E940B1080E0089584
:10216000FC018281882319F010928401089581E096
:10217000089590938A01809389010895E0918901DF
:10218000F0918A01309721F00190F081E02D0994BF
:1021900080E00895E0918901F0918A01309799F0EB
:1021A00020912201222359F02091980227FF07C095
:1021B000DC012C9111962C93119725E02C93028031
:1021C000F381E02D09940895E0918901F0918A014D
:1021D000309739F022E0DC012C930480F581E02D6A
:1021E00009940895209187013091880182179307FF
:1021F00071F09093880180938701E0918901F091BB
:102200008A01309721F00680F781E02D0994089526
:1022100020918501309186018217930771F0909388
:10222000860180938501E0918901F0918A013097C0
:1022300021F00084F185E02D0994089585B7806828
:1022400085BF85B7806885BF0895089508950C946B
:10225000261108950C9429110E941E110E94251127
:102260000C94271181E008950E94B71E0E94FE0879
:102270000E948C1F0E94D6220E94040F0C942A11E7
:102280004F925F927F928F929F92AF92BF92CF9226
:10229000DF92EF92FF920F931F93CF93DF93CDB70F
:1022A000DEB72A970FB6F894DEBF0FBECDBF0E94EF
:1022B00048090E943211811111C08FEF89838A83EE
:1022C0001B820E94C01E8160782F9D838C83498170
:1022D0005A816B818D810E94FE1157C09CE8C92EE6
:1022E00091E0D92E00E010E0AA24A394B12C702E26
:1022F000802F0E94F4084C01F601419051906F012B
:10230000482659264114510431F40F5F1F4F053000
:10231000110569F7D2CF80912E0281FD0E94FD0840
:1023200020E030E07501022E02C0EE0CFF1C0A9482
:10233000E2F7C70184219521892B09F12E837F8241
:102340008E209F2091E0892809F490E098870E94D0
:10235000C01E8160782F9A8789874E815F8168854A
:102360008A850E94FE11000F111FF801E457FE4FED
:1023700080819181E826F926F182E08206C02F5FF4
:102380003F4F2F30310571F6C0CF0E942F221091A0
:102390008B010E94BE101817D9F00E94BE108093C6
:1023A0008B012A960FB6F894DEBF0FBECDBFDF912A
:1023B000CF911F910F91FF90EF90DF90CF90BF9042
:1023C000AF909F908F907F905F904F900C942404DB
:1023D0002A960FB6F894DEBF0FBECDBFDF91CF9126
:1023E0001F910F91FF90EF90DF90CF90BF90AF9033
:1023F0009F908F907F905F904F900895CF93DF9341
:10240000CDB7DEB72B970FB6F894DEBF0FBECDBFAA
:102410004F83588769877A878B87DE01119686E01C
:10242000FD0111928A95E9F785E0FE01379601904A
:102430000D928A95E1F749815A816B817C818D816A
:102440009E810E945D192B960FB6F894DEBF0FBED9
:10245000CDBFDF91CF910895FC01808191810E94D1
:10246000291C0895882309F41AC18238C1F40E94F6
:10247000BE1081FD14C169E380911001909111019A
:102480000E940C1E0E94B41C2FEF81EE94E021509C
:1024900080409040E1F700C0000069E319C0833834
:1024A000F9F40E94BE1080FDFAC063E5809110012E
:1024B000909111010E940C1E0E94B41C2FEF81EE1E
:1024C00094E0215080409040E1F700C0000063E5B7
:1024D00080911001909111010E94171E0C94B41C60
:1024E0008438C1F40E94BE1082FDD9C067E4809197
:1024F0001001909111010E940C1E0E94B41C2FEF3C
:1025000081EE94E0215080409040E1F700C000004F
:1025100067E4DECF9CEF980F913A40F4682F8091EA
:102520001001909111010E940C1ED8CF90E2980FDB
:10253000983050F4877091E001C0990F8A95EAF7BE
:10254000892F0E946B1CCACF9BE5980F933070F4C3
:10255000853A29F0863A31F083E890E005C081E8B9
:1025600090E002C082E890E00C94F21098E5980F99
:10257000973108F08EC0883A09F445C0893A09F4C9
:1025800045C08A3A09F445C08B3A09F445C08C3AF3
:1025900009F445C08B3B09F445C08C3B09F445C0A8
:1025A0008D3A09F445C0803B09F445C08E3A09F4E0
:1025B00045C08F3A09F445C0813B09F445C0823BD0
:1025C00009F445C0833B09F445C0843B09F445C088
:1025D000853B09F445C0863B09F445C0873B09F4B7
:1025E00045C0883B09F445C0893B09F445C08D3B93
:1025F00009F445C08E3B09F445C08A3B09F445C047
:1026000080E090E044C082EE90E041C089EE90E02E
:102610003EC08AEE90E03BC085EB90E038C086EB90
:1026200090E035C083EB90E032C084EB90E02FC0A7
:1026300087EB90E02CC08CEC90E029C08DEC90E012
:1026400026C083E891E023C08AE891E020C082E9B7
:1026500091E01DC084E991E01AC081E292E017C0C8
:1026600083E292E014C084E292E011C085E292E03D
:102670000EC086E292E00BC087E292E008C08FE6CF
:1026800090E005C080E790E002C08AE292E00C94FE
:102690000811803F20F00E9437210C9424220895D5
:1026A000882309F464C0823879F40E94BE1081FF47
:1026B0005EC069E380911001909111010E940C1E8F
:1026C0000E94B41C69E310C08338B1F40E94BE10AC
:1026D00080FF4DC063E580911001909111010E942F
:1026E0000C1E0E94B41C63E58091100190911101B1
:1026F0000E94171E0C94B41C843879F40E94BE10FA
:1027000082FF35C067E480911001909111010E9411
:102710000C1E0E94B41C67E4E7CF9CEF980F913A1F
:1027200010F4682FE1CF90E2980F983050F4877042
:1027300091E001C0990F8A95EAF7892F0E94711CD8
:10274000D9CF9BE5980F933020F480E090E00C9473
:10275000F21098E5980F973120F480E090E00C9407
:102760000811803F20F00E949F210C94242208959C
:10277000CF93C82F0E943212C93349F42FEF83EC54
:1027800099E0215080409040E1F700C000008C2F7C
:10279000CF910C945013882321F00E946B1C0C9451
:1027A000B41C0895882321F00E94711C0C94B41C61
:1027B00008954F925F926F927F92BF92CF92DF9275
:1027C000EF92FF920F931F93CF93DF937C01D62F4D
:1027D000C72FFC01058102950F70128111110E9413
:1027E000881C0E94611C882379F0112369F080E223
:1027F0008D0F883048F082E00E94FF1C0E94611C0F
:1028000091E0B82EB92601C0B12CCC2EC2948FE035
:10281000C822D12CF601E859FF4F0C941A2B8C2FAB
:10282000807FCF70882311F0C295C07F112399F06B
:10283000CC2309F4D0C180E28D0F883010F0D11183
:1028400004C08C2F0E946B1C03C08C2F0E947B1C29
:102850000E94B41CC0C18D2F0E945013CC2309F4D8
:1028600003C280E28D0F883010F0D11104C08C2F8C
:102870000E94711C03C08C2F0E94811C0E94B41CFA
:10288000F3C18C2F807FCF70803211F0C295C07F52
:10289000DD2319F0D130C9F022C0112371F00023DB
:1028A00041F0013031F40E949B1C8C2B0E94A11C32
:1028B000DBC10E949B1C8C2B46C1002319F0013008
:1028C00009F4D2C10E94AA1C18C0112321F00630BD
:1028D00008F0CAC10EC0053008F0C6C10EC01123F1
:1028E00051F0002331F0F701858180FF74C18F70B2
:1028F00085838C2F28C101117FC18C2F2AC18C2F79
:1029000086958695837090E0009719F0019761F0A5
:10291000ABC1112321F08D2F9C2F937002C080E05A
:1029200090E00E94F210B0C1112321F08D2F9C2F56
:10293000937002C080E090E00E940811A5C11123AD
:10294000F9F0D53F51F0D63F71F0D43FA9F4809112
:1029500092029091930281600BC0809192029091BB
:102960009302826005C080919202909193028460EC
:1029700090939302809392028D2F0E9437211EC064
:10298000D53F51F0D63F71F0D43FA9F48091920227
:10299000909193028E7F0BC080919202909193024E
:1029A0008D7F05C080919202909193028B7F9093CE
:1029B0009302809392028D2F0E949F210E942422D5
:1029C00063C18C2F837009F050C0111159C18D2F34
:1029D000829586958770880F880F9D2F9F70492E4E
:1029E000512C612C712C082E04C0440C551C661C03
:1029F000771C0A94D2F7D4FF14C00FE010E020E057
:102A000030E0B901A80104C0440F551F661F771FAD
:102A10008A95D2F7CB01BA01609570958095909513
:102A200003C060E070E0CB01C695C695C370D0E0EE
:102A3000C230D10561F0C330D10581F06429752918
:102A400086299729219771F00E94A21A19C1642939
:102A50007529862997290E94B41A12C10E94A21AC8
:102A6000C301B2010E94901A0BC1112319F08C2FDF
:102A7000817001C08695882309F402C18D2F82954B
:102A800086958770880F880F9D2F9F70492E512C37
:102A9000612C712C082E04C0440C551C661C771C3C
:102AA0000A94D2F7D4FF14C00FE010E020E030E029
:102AB000B901A80104C0440F551F661F771F8A95EE
:102AC000D2F7CB01BA01609570958095909503C0BF
:102AD00060E070E0CB01C695C695C3704C2F50E006
:102AE0004230510569F04330510589F06429752958
:102AF000862997294130510571F00E94681BC0C09A
:102B000064297529862997290E947A1BB9C00E94D9
:102B1000681BC301B2010E94561BB2C08D2F90E00A
:102B2000FC01E05EF109E531F10508F050C0E8581C
:102B3000FF4F0C941A2BDF708C2F8F71112331F003
:102B40000E94EF1A8D2F0E94CB138EC00E94101B83
:102B50008D2F0E94D21388C0112341F0053008F058
:102B600083C08C2F8F710E94351B7EC0063008F009
:102B70007BC0F7CF112339F08C2F8F710E94EF1A91
:102B800073C01123C9F38C2F8F710E94101B6CC06E
:102B9000112329F08C2F8F710E94DA1A65C00E94D0
:102BA000D51A62C0112349F0CF718C2F0E94EF1A01
:102BB00063E08C2F0E94EA1C57C081E00E94FF1C3A
:102BC000023008F451C082E00E94FF1C4DC0112366
:102BD00031F0002389F28D2F0E94321245C000236C
:102BE00091F2D93349F45FEF63EC79E051506040E2
:102BF0007040E1F700C000008D2F0E94501334C0D8
:102C00004C2F4F706D2FC7010E9441060E94011A80
:102C10003BC0111139C0CF70D0E0C230D10599F05E
:102C20003CF4209769F02197F9F40E9410232CC0FE
:102C3000C430D10571F054F02597B1F480E00AC09A
:102C40000E94F32221C00E944F231EC00E945623DF
:102C50001BC085E00E94792317C04C2F4F706D2F49
:102C6000C7010E94440610C088E0C816D10441F094
:102C70005CF0EAE0CE1AD108F2E0CF16D10420F4DD
:102C80000E94BE100E942404BB20F1F00E945D1C33
:102C900080FD1AC0F70112820E94571C0E94EF1A91
:102CA000C7010E9472160E94571CDF91CF911F919D
:102CB0000F91FF90EF90DF90CF90BF907F906F903B
:102CC0005F904F900C94101BDF91CF911F910F914B
:102CD000FF90EF90DF90CF90BF907F906F905F90CC
:102CE0004F9008950F931F93CF93DF93EC0188814A
:102CF00099812B813C81232BB9F09F3F11F48F3FA9
:102D000099F0CE010E943604882371F068817981A0
:102D10008A810E94341C8C010E948C1B0E948D1A97
:102D2000B801CE010E94D913DF91CF911F910F916D
:102D300008950E94881C0E94981C0E94B41C0E9446
:102D4000CA220E94242280E090E00E94F21080E0DB
:102D500090E00C94081180911001909111010E9453
:102D6000221E0C9499160E94781C0C94AB16E92F25
:102D7000E295EF70F0E03297EE30F105B0F4E357F2
:102D8000FF4F0C941A2B803F91F018F4803E68F4AA
:102D90000EC0843F51F40BC0803E48F0813F29F4BF
:102DA00006C093FB882780F9089580E0089581E0AC
:102DB00008950E94291C0E94B7160895CF93DF93AF
:102DC00000D000D01F92CDB7DEB70F900F900F90BC
:102DD0000F900F90DF91CF910895CF93DF9300D0A4
:102DE00000D000D0CDB7DEB726960FB6F894DEBF80
:102DF0000FBECDBFDF91CF9108951F93CF93DF9387
:102E0000C091970116E080919801C81799F0D0E021
:102E10001C9FF0011D9FF00D1124E756FE4F4081CD
:102E2000518162817381848195810E94ED16219682
:102E3000C770E9CFDF91CF911F9108954091C901EB
:102E40005091CA016091CB017091CC018091CD016C
:102E50009091CE010C94ED168091CE0182958F70E9
:102E600009F054C08091CB01882309F44FC08091B0
:102E70009701A09198016091C9017091CA01409198
:102E8000CC015091CD01B6E08A1709F43FC090E023
:102E900041155105C1F17F3F11F46F3FA1F1B89F7A
:102EA000F001B99FF00D1124E756FE4F21817213F6
:102EB0002AC02081621327C02281211124C02381CE
:102EC00034812417350710F421503109241B350BA8
:102ED000283C3105C0F42091CE012F702061209351
:102EE000CE0126E0289FF001299FF00D1124E25623
:102EF000FE4F80818F708061808389EC91E00E9419
:102F000072160C94FD1601968770BECF0895CF926D
:102F1000DF92EF92FF920F931F93CF93DF93CDB782
:102F2000DEB762970FB6F894DEBF0FBECDBF8C013F
:102F300085E0F801DE011D9601900D928A95E1F77A
:102F4000D8014C9111965C91119712966C91129741
:102F50001396CD90DC9014973091C9017091CA01FD
:102F60008091CC019091CD01009709F46BC17F3F16
:102F700019F43F3F09F466C1E090CB01EE2009F45B
:102F8000C0C02091CE01C816D90628F0F601E81B72
:102F9000F90BCF0104C0809590958C0D9D1DFF24E9
:102FA000F394883C910578F0F12C207F09F0C6C09D
:102FB0007C2DD98AC88A89890E94DE1689EC91E025
:102FC0000E947216B1C0822F807F09F046C075132F
:102FD00014C0341312C0611110C02F7020612093EF
:102FE000CE010E941E1789EC91E00E94721680911A
:102FF000CE01D80115968C932EC0CD2819F15F3FD4
:1030000011F44F3FF9F0F62E61111CC08091970129
:103010002091980136E0821709F45AC090E0389F59
:10302000F001399FF00D1124E756FE4F71815713BF
:1030300006C07081471303C07281711103C00196ED
:103040008770E9CFF62E662309F427C18091CE015F
:1030500081608093CE01F12C20C1751308C0341318
:1030600006C0611104C08091CE01D801C3C04D8754
:103070005E878D859E856A8B0E94D9166A89882312
:10308000E1F16623D1F12091CE01822F82958F70DC
:1030900090E0029774F08091C9019091CA019887DD
:1030A0008F831986DB86CA862C87CE0107960E94FD
:1030B000721686E0F801A9ECB1E001900D928A95B4
:1030C000E1F70E942C170E941E17FF24F394E5C01D
:1030D0004D875E878D859E850E94291C292F22950C
:1030E0002F7030E0223031050CF0CBC09F7009F01A
:1030F000C5C0805E883008F4D0C0C8010E94721636
:10310000E4CFC816D90608F453C0F601E81BF90B42
:10311000CF01883C910508F450C0F12C7C2DD98A50
:10312000C88A89890E94DE16E9ECF1E086E0DF01B9
:103130001D928A95E9F70E941E17AFC0751314C03F
:10314000341312C0611110C08091CE01F801858343
:10315000C8010E94721686E0E9ECF1E0DF011D92E1
:103160008A95E9F7FE2C99C04D875E878D859E85EF
:103170006A8B0E94D9166A89882309F4BECF662318
:1031800009F4BBCF2091CE01822F82958F7090E001
:1031900002970CF48ECF8091C9019091CA019A8355
:1031A00089831B82DD82CC822E83CE0101967FCF64
:1031B000809590958C0D9D1DACCFF62E662309F45D
:1031C0009CCF75132EC034132CC02091CE0120FD4E
:1031D0001FC0822F82958F70D9F0D80115962C933D
:1031E00015978F3049F08F5F982F9295907F822F9F
:1031F0008F70892B15968C93C8010E94721686E0F9
:10320000F801A9ECB1E001900D928A95E1F793CF16
:1032100086E0F801A9ECB1E001900D928A95E1F702
:103220003CC04D875E878D859E850E94D916811191
:1032300040CF8091CE0181608093CE01C8010E9471
:1032400072162BC0662309F458CF4D875E878D8593
:103250009E850E94D916F82E882309F44ECF86E069
:10326000F801A9ECB1E001900D928A95E1F789ECA3
:1032700091E00E942C120E942C175DCF811139CF52
:103280000CC0243031050CF038CF9F7009F431CFD9
:10329000F8019581907F09F02CCF8F2D62960FB6A3
:1032A000F894DEBF0FBECDBFDF91CF911F910F917C
:1032B000FF90EF90DF90CF9008951F93CF93DF930F
:1032C000CDB7DEB72C970FB6F894DEBF0FBECDBFDB
:1032D0004F83588769877A878B879C87CE010796AB
:1032E0000E948717882369F08F8198852A853B85FE
:1032F000232BF1F19F3F09F063C08F3F09F060C0BD
:1033000037C086E0FE013796DE01119601900D92DE
:103310008A95E1F76F817885EA85FB85309741F1E1
:103320007F3F11F46F3F21F12091980130E0C901F6
:103330000196877099274091970150E0841795076F
:1033400009F447C069837A83FD83EC8396E0929FFA
:10335000D001939FB00D1124A756BE4FFE013196A8
:1033600001900D929A95E1F7809398010E94FD16C5
:1033700016E080919701909198018917C1F1189FEB
:10338000C001112487569E4F0E948717882379F128
:10339000E09197011E9FF0011124E756FE4F4081F6
:1033A000518162817381848195810E94ED168091A3
:1033B000970190E001968770992780939701D9CF64
:1033C0004F81588569857A858B859C850E94ED168D
:1033D000CFCF0E94B3161092980110929701E9EC9A
:1033E000F1E086E0DF011D928A95E9F7C1CF2C96C6
:1033F0000FB6F894DEBF0FBECDBFDF91CF911F9106
:103400000895EF92FF920F931F93CF93DF938C0158
:10341000892B09F46CC0F12CEE24E394E801219689
:10342000F8018491843740F4843008F051C0813031
:1034300081F0823019F15BC0853709F444C0A8F1EE
:103440009CE7980F903708F052C08F770E94501376
:1034500041C00E5F1F4FFE01C49180E28C0F883087
:1034600048F4C7708E2D01C0880FCA95EAF70E94F4
:103470008B1C14C08C2F0E9432122DC00E5F1F4F68
:10348000FE01C49180E28C0F883058F4C7708E2DF5
:1034900001C0880FCA95EAF70E94911C0E94B41CD3
:1034A0001AC08C2F0E94501316C00E5F1F4FFE01D2
:1034B000C491CC2381F08FE99FE00197F1F700C020
:1034C0000000C150F6CF0E5F1F4FFE01F49003C005
:1034D0000E9432128E018F2D882309F49FCFEFE9CD
:1034E000FFE03197F1F700C000008150F5CFDF9188
:1034F000CF911F910F91FF90EF90089508950C9434
:103500007E1A0E947F1A60930502709306028093D0
:103510000702909308020C94991608950C94811A4E
:103520000F931F930091050210910602209107024C
:1035300030910802602B712B822B932B1F910F91DE
:103540000C94811A0F931F930091050210910602AB
:103550002091070230910802602371238223932374
:103560001F910F910C94811A0F931F9300910502E4
:1035700010910602209107023091080260277127FE
:10358000822793271F910F910C94811A08950C9410
:10359000C61A0E94C71A60930102709302028093B8
:1035A0000302909304020C94991660E070E0CB0142
:1035B0000C94C91A0F931F9341E050E060E070E053
:1035C0008A019B0104C0000F111F221F331F8A951F
:1035D000D2F7C901B8011F910F910C94C91A0F932A
:1035E0001F9341E050E060E070E004C0440F551FBD
:1035F000661F771F8A95D2F780910102909102028F
:10360000A0910302B09104028A019B01082B192B9F
:103610002A2B3B2BC901B8011F910F910C94C91A99
:103620000F931F9341E050E060E070E004C0440F4E
:10363000551F661F771F8A95D2F740955095609564
:1036400070958091010290910202A0910302B091C5
:1036500004028A019B01082319232A233B23C90161
:10366000B8011F910F910C94C91A0F931F9341E059
:1036700050E060E070E004C0440F551F661F771FE4
:103680008A95D2F78091010290910202A0910302E3
:10369000B09104028A019B01082719272A273B279A
:1036A000C901B8011F910F910C94C91A0F931F9370
:1036B0000091010210910202209103023091040254
:1036C000602B712B822B932B1F910F910C94C91A95
:1036D0000F931F93009101021091020220910302A7
:1036E0003091040260237123822393231F910F9151
:1036F0000C94C91A0F931F930091010210910202BA
:1037000020910302309104026027712782279327BA
:103710001F910F910C94C91A08952FE0929F800D6C
:103720001124A82FA695A695A695877051E001C0F3
:10373000550F8A95EAF785E0A89FD001112420E073
:1037400030E070E0F901EA0FFB1FE153FE4F4081CA
:10375000CB01022E02C0969587950A94E2F78170FC
:103760009927819584278523842780832F5F3F4F66
:103770002530310539F708952FE0929F800D1124EF
:10378000682F669566956695982F977085E0689F77
:10379000B001112440E050E080E0FA01E60FF71F8D
:1037A000E153FE4F208130E0092E02C03695279567
:1037B0000A94E2F721703327042E01C0220F0A94E5
:1037C000EAF7822B4F5F5F4F4530510531F708957F
:1037D000BF92CF92DF92EF92FF920F931F93CF93FE
:1037E000DF938C01C0900502D0900602E0900702A2
:1037F000F09008028091010290910202A0910302D0
:10380000B0910402C82AD92AEA2AFB2ACFE1D0E0E3
:10381000D701C6010C2E04C0B695A795979587953C
:103820000A94D2F780FF07C0BC2EB8018C2F0E94EB
:103830005F06019719F4219758F7B12C8B2DDF9172
:10384000CF911F910F91FF90EF90DF90CF90BF909D
:103850000895CF93DF93EC010E94E81BBE010E9404
:103860005F06DF91CF9108951F93CF93DF93EB0114
:1038700090919601992321F0CB010E94291C13C03D
:10388000882349F0CB010E94E81B182F682FCE0136
:103890000E948D1B04C0CB010E94BC1B182FBE01CF
:1038A000812F0E945F06DF91CF911F910895809133
:1038B00009028595859585950895809109028770FF
:1038C000089590910902977081E009F480E00895CD
:1038D00080912D02089590912D02892B80932D02C5
:1038E0000895809590912D02892380932D0208954B
:1038F00010922D02089590912C02892B80932C0216
:103900000895809590912C02892380932C0208952C
:1039100010922C02089590912B02892B80932B02F8
:103920000895809590912B02892380932B0208950E
:1039300010922B02089580910A02089508950C9424
:103940009E1C90910A02981721F080930A020C9411
:103950009F1C089580910A02882329F010920A0280
:1039600080E00C949F1C0895E0911001F0911101EA
:1039700080912D028083E0911001F09111019081DE
:1039800080912C02892B8083E0911001F09111012C
:10399000908180912B02892B808380910A02882359
:1039A00081F0E0911001F09111019081892B8083C9
:1039B00080911001909111010E94A71D81110E9418
:1039C000AA1C80911001909111010C94CA100895C5
:1039D0000C94E71C98E0899F90011124262B2093DA
:1039E00009020E94EF1A80910902859585958595B7
:1039F0000C94E81C1092090280E00C94E81C2091C1
:103A000009028095822380930902982F977079F498
:103A100030E0482F082E000C550B2417350739F0DD
:103A20008595859585950E94101B0C94FA1C089528
:103A300080E090E00E94552B21E08D3E9E4F09F0E2
:103A400020E0822F089582E090E00C94472B682FAD
:103A500082E090E00C945B2B83E090E00C94472B89
:103A6000682F83E090E00C945B2B84E090E00C9452
:103A7000472B682F84E090E00C945B2B86E090E06D
:103A80000C94472B682F86E090E00C945B2BAB01E5
:103A9000BC018FE090E00C946D2BAB01BC0183E185
:103AA00090E00C946D2B60E070E0CB010C944D1D08
:103AB00060E070E0CB010E94471D0C94531D6DEE39
:103AC0007EEF80E090E00E94792B60E082E090E061
:103AD0000E945B2B60E083E090E00E945B2B1092E1
:103AE000050210920602109207021092080260E08E
:103AF00084E090E00E945B2B60E085E090E00E9413
:103B00005B2B60E086E090E00E945B2B6FEF87E02C
:103B100090E00E945B2B40E050E0BA0188E090E02A
:103B20000E946D2B60E08DE090E00E945B2B40E0F6
:103B300050E0BA0188E190E00E946D2B60E087E1DF
:103B400090E00E945B2B0C94581D0C945F1DFC01AF
:103B5000329680912201882331F08091980287FF6C
:103B600002C09EE101C096E080E0915028F02191D2
:103B70002223D9F38F5FF9CF08959C01FC0132967F
:103B80009FEF80E04191461789F09F3F19F4411162
:103B900001C0982F8F5F8630A9F79F3F39F0F90158
:103BA000E90FF11D97FDFA95628308950895FC01D0
:103BB000329608962081261301C010823196E817AC
:103BC000F907C1F70895262F2695269526952E31BB
:103BD00068F4FC01E20FF11D677021E030E001C0E4
:103BE000220F6A95EAF78281282B22830895262FD7
:103BF0002695269526952E3170F4FC01E20FF11DD5
:103C0000677021E030E001C0220F6A95EAF7209545
:103C1000828128232283089520912201222329F0E2
:103C20002091980227FD0C94E31D0C94BD1D20915A
:103C30002201222329F02091980227FD0C94F71DE0
:103C40000C94D71D20912201FC013296222331F0E1
:103C50008091980287FF02C08EE101C086E0DF01FB
:103C60001D928A95E9F7089508950C94341E0E94D8
:103C7000351E80919F02843061F110922F0220E462
:103C800088E190E00FB6F894A895809360000FBE8D
:103C90002093600080E00E94AB0380E00E94240437
:103CA0000E94351E83B7817F846083BF83B78160A4
:103CB00083BF7894889583B78E7F83BF0FB6F894BF
:103CC000A8958091600088618093600010926000E8
:103CD0000FBE089508950895CF930E946A1E0E9412
:103CE00048090E946B1EC0E08C2F0E94F408892BAB
:103CF00029F4CF5FC530C1F780E001C081E0CF91EA
:103D0000089508950C94811E0E94B3160E94D62235
:103D10000E94BE100E9424040C94821E1F920F92D7
:103D20000FB60F9211248F939F93AF93BF938091FF
:103D30002F02811113C08091940290919502A0915D
:103D40009602B09197024196A11DB11D80939402F5
:103D500090939502A0939602B0939702BF91AF9172
:103D60009F918F910F900FBE0F901F90189582E03A
:103D700084BD93E095BD9AEF97BD80936E00089542
:103D80002FB7F8948091940290919502A091960299
:103D9000B09197022FBF0895CF92DF92EF92FF92DA
:103DA0000F931F932FB7F89440919402509195026E
:103DB00060919602709197022FBF6A017B01EE24F9
:103DC000FF248C0120E030E0C016D106E206F306A5
:103DD00010F4415051099A01281B390BC9011F9158
:103DE0000F91FF90EF90DF90CF90089578941F92FD
:103DF0000F920FB60F9211248F939F93AF93BF939F
:103E00008091940290919502A0919602B0919702B0
:103E10000196A11DB11D8093940290939502A093E9
:103E20009602B0939702BF91AF919F918F910F909F
:103E30000FBE0F901F90189581E08093E00080E204
:103E40008093D8001092C9008FE19EE40197F1F7AA
:103E500000C0000087E090EBDC018093A802909303
:103E6000A902A093AA02B093AB029CE088E10FB62E
:103E7000F894A895809360000FBE90936000FFCFE8
:103E8000AF92BF92CF92DF92EF92FF920F931F9368
:103E9000CF93C0E0CC24C394D12CE82EF12C8C2FEE
:103EA0000E94F4085C0100E010E09601002E02C0C0
:103EB000220F331F0A94E2F72A213B21232B31F4EE
:103EC0000F5F1F4F0F30110581F70AC0602F7C2F45
:103ED00080E00E944506E816F90691F781E004C0EB
:103EE000CF5FC530E1F680E0CF911F910F91FF9039
:103EF000EF90DF90CF90BF90AF900895CF93C82FF1
:103F00008CE20E94401F882321F08C2FCF910C94CB
:103F1000401F80E0CF910895CF930E94181D81111A
:103F200002C00E94A51DC5E6C15049F00E94480983
:103F30008FE39CE90197F1F700C00000F5CF89E21B
:103F40000E947E1F81110FC18AE20E947E1F811193
:103F50000E94A51D85E00E947E1F81110E941C1FEA
:103F60000E94231D80932E0287E00E947E1F8823DB
:103F7000A9F18BE10E947E1F882351F080912E02CF
:103F800081FB222720F991E0922790FB81F90EC056
:103F90008EE00E947E1F882361F080912E0282FBBA
:103FA000222720F991E0922790FB82F980932E023C
:103FB00015C080E10E947E1F90912E02882341F05F
:103FC00093FB222720F981E0822780FB93F904C02C
:103FD000892F809580FB90F990932E0280912E027C
:103FE0000E94271D0E94351D90E0909399028093B6
:103FF000980280EE0E947E1F882341F080919802F3
:10400000982F909590FB80F98093980289E30E9405
:104010007E1F882359F08091980281FB222720F986
:1040200091E0922790FB81F98093980282EE0E94A2
:104030007E1F882359F08091980282FB222720F965
:1040400091E0922790FB82F98093980286EE0E947D
:104050007E1F882359F08091980283FB222720F944
:1040600091E0922790FB83F98093980283EE0E945F
:104070007E1F882359F08091980284FB222720F923
:1040800091E0922790FB84F98093980285E30E9447
:104090007E1F882359F08091980285FB222720F902
:1040A00091E0922790FB85F98093980281E30E942A
:1040B0007E1F882359F08091980286FB222720F9E1
:1040C00091E0922790FB86F98093980281E10E940B
:1040D0007E1F882359F08091980287FB222720F9C0
:1040E00091E0922790FB87F9809398028091980243
:1040F0000E94391D87E20E947E1FC82F8EE10E9418
:104100007E1F8111C2608FE10E947E1F8111C460F9
:1041100080E20E947E1F8111C86081E20E947E1FA2
:104120008111C06182E20E947E1F8111C06283E220
:104130000E947E1F8111C06484E20E947E1F88233A
:1041400011F0C06802C0CC2329F08C2F0E94301DD2
:104150006C2F03C00E942C1D682F70E080E090E05F
:10416000CF910C948E1ACF9108958091330280FFE5
:104170000BC06091150185E0689FB0011124759511
:104180006795759567952BC081FF09C060911501F2
:1041900085E0689FB00111247595679520C082FF66
:1041A00007C06091150185E0689FB001112417C018
:1041B000909132029923D1F060911401961788F7FB
:1041C0002091150185E0289F90011124929FA00164
:1041D000939F500D112470E0CA010E94E42A6038B8
:1041E000710540F46115710539F002C065E070E0B9
:1041F000862F08958FE7089581E008958091330216
:1042000080FF08C06091130170E075956795759502
:10421000679521C081FF06C06091130170E075951C
:10422000679519C082FF04C06091130170E010C04F
:10423000909132029923C1F0609112019617A0F774
:1042400080911301899FC001112470E00E94E42A2B
:104250006038710528F46115710521F0862F0895E5
:104260008FE7089581E0089561E070E0F4CF803F2A
:1042700021F40E94B520819504C0813F29F40E9459
:10428000B520809337020895823F21F40E94B52023
:10429000819504C0833F29F40E94B52080933602A3
:1042A0000895893F19F40E94FE2005C08A3F31F429
:1042B0000E94FE2081958093380208958B3F21F45F
:1042C0000E94FE20819504C08C3F29F40E94FE20AC
:1042D000809339020895843F21F4809135028160F2
:1042E00017C0853F21F480913502826011C0863F5E
:1042F00021F48091350284600BC0873F21F48091C6
:104300003502886005C0883F31F4809135028061B4
:104310008093350208958D3F21F4809133028160AE
:104320000BC08E3F21F480913302826005C08F3F25
:1043300029F4809133028460809333020895803F92
:1043400039F48091370287FF6CC01092370269C040
:10435000813F29F4809137021816BCF362C0909116
:104360003602823F29F497FF5CC01092360259C092
:10437000833F19F41916CCF354C0893F41F480915E
:10438000380218160CF04DC0109238024AC08A3F0D
:1043900029F48091380287FF44C0F6CF8B3F39F46F
:1043A0008091390287FF3DC0109239023AC08C3F9C
:1043B00029F4809139021816BCF333C0843F21F4EC
:1043C000809135028E7F17C0853F21F480913502A0
:1043D0008D7F11C0863F21F4809135028B7F0BC009
:1043E000873F21F480913502877F05C0883F31F4F3
:1043F000809135028F7E8093350213C08D3F21F46A
:10440000809133028E7F0BC08E3F21F48091330266
:104410008D7F05C08F3F29F4809133028B7F80937D
:1044200033028091360281110EC0809137028111D2
:104430000AC080913802811106C080913902811131
:1044400002C010923202089584E392E00E94E410C8
:104450000E94C01E909331028093300208951F93F2
:10446000CF93DF9380913002909131020E94CC1E55
:10447000AC0190913202992321F02091160130E095
:1044800006C0209117018AE0289F9001112442174D
:10449000530708F47BC080913602C0913702D09157
:1044A000380210913902811107C0C1116BC0D111BE
:1044B00069C0111167C06AC09F3F19F09F5F909358
:1044C0003202181624F40E94B5208093360280919F
:1044D000360287FF05C00E94B52081958093360281
:1044E0001C1624F40E94B520809337028091370275
:1044F00087FF05C00E94B5208195809337023091D7
:1045000036023323E1F0209137022223C1F045EB3C
:104510003403C0011124892F990F990B009709F4D6
:1045200081E08093360235EB2303C0011124892FEB
:10453000990F990B009709F481E0809337021D16BB
:1045400024F40E94FE20809338028091380287FF75
:1045500005C00E94FE20819580933802111624F434
:104560000E94FE20809339028091390287FF05C0A6
:104570000E94FE20819580933902DF91CF911F9197
:104580000C9424229F3F09F099CFA1CFDF91CF91C6
:104590001F910895E4E3F2E086E0DF011D928A9521
:1045A000E9F7109232021092330208950E94181D0A
:1045B000811102C00E94A51D0E943E1D80939A0297
:1045C000282F269530E02630310524F081708A604E
:1045D00080939A0280919A0280FF02C0869501C062
:1045E00080E00C94AB0320919A02822F8695482F8D
:1045F00050E04530510544F48F5F982F990F822F7A
:104600008170892B80939A0280919A0281608093B5
:104610009A020E94421D80919A0286950C94AB03E7
:1046200080919A02982F969591F09158990F8170E8
:10463000892B80939A028E7F91E009F490E080911B
:104640009A0290FB80F980939A020E94421D809109
:104650009A0286950C94AB0380919A0280FD11C05A
:10466000816080939A02813019F483E080939A02EA
:1046700080919A020E94421D80919A0286950C9424
:10468000AB03089580919A0280FF08C08E7F8093CB
:104690009A020E94421D80E00C94AB030895809121
:1046A0009A0280FD0C9442230C942C2390919A0240
:1046B000892F86958F5F8F779170863028F4880FC9
:1046C000892B80939A0202C090939A0280919A0259
:1046D0008E7F91E009F490E080919A0290FB80F93E
:1046E00080939A020E94421D80919A0286950C94B2
:1046F000AB03863008F085E0880F90919A029170A4
:10470000892B80939A028E7F91E009F490E080914A
:104710009A0290FB80F980939A020E94421D809138
:104720009A0286950C94AB0380915A0208950F93D8
:104730001F93CF93DF9300D01F92CDB7DEB78C01CC
:104740000E940726823011F0843021F584E08983AD
:104750001B830A8382E08093E9008FEF9091E80049
:10476000815095FD06C095ED9A95F1F700008111F5
:10477000F5CF8091E80085FF0DC040E050E063E098
:1047800070E0CE0101960E9424268091E8008E7789
:104790008093E8000F900F900F90DF91CF911F91C1
:1047A0000F910895CF93DF9300D01F92CDB7DEB75E
:1047B00020919F02243031F523E02983805891090C
:1047C0009B838A8382E08093E9008FEF9091E800D9
:1047D000815095FD06C095ED9A95F1F70000811185
:1047E000F5CF8091E80085FF0DC040E050E063E028
:1047F00070E0CE0101960E9424268091E8008E7719
:104800008093E8000F900F900F90DF91CF91089563
:10481000CF93DF93EC010E940726823011F08430A1
:10482000F9F482E08093E9009FEF8091E8009150D5
:1048300085FD06C085ED8A95F1F700009111F5CF51
:104840008091E80085FF0CC040E050E066E070E039
:10485000CE010E9424268091E8008E778093E800A4
:10486000DF91CF910895CF93DF93EC010E9407264B
:10487000823011F08430D9F580912201882339F0FB
:104880008091980287FF03C060E282E002C068E086
:1048900081E08093E9008FEF9091E800815095FDD1
:1048A00006C095ED9A95F1F700008111F5CF809142
:1048B000E80085FF1CC080912201811105C040E005
:1048C00050E068E070E003C070E040E050E0CE01EE
:1048D0000E9424268091E8008E778093E80080E291
:1048E000FE01AAE3B2E001900D928A95E1F7DF9113
:1048F000CF91089580919E02811109C00E94B9272D
:104900000E9416288091E20084608093E20008955E
:1049100010929E020895089508950C94841E42E01A
:1049200061EC81E00E94332742E261EC82E00C946A
:1049300033278091A102833009F460C030F48130C4
:1049400071F0823009F499C008958A3009F485C065
:104950008B3009F46BC0893009F0A7C020C080916A
:10496000A002813A09F0A1C08091E800877F80937E
:10497000E8008091A4029091A502892B21F460E2C5
:104980008AE392E003C060E080E090E070E00E9483
:104990006F268091E8008B778093E80008958091DE
:1049A000A002813209F081C08091A4029091A502F9
:1049B000029708F07AC08091E800877F8093E80032
:1049C0008091E80082FD05C080919F028111F8CF9F
:1049D0006CC02091F3008091F20090E0922B02973E
:1049E00029F48091F1008B7F813021F48091F100D6
:1049F00080935A028091E8008B7753C08091A00287
:104A0000813A09F052C08091A4029091A502892BAD
:104A100009F04BC08091E800877F8093E800809187
:104A2000E80080FFFCCF8091220136C08091A00277
:104A30008132D9F58091A4029091A502892BA9F524
:104A40008091E800877F8093E8000E94682780912A
:104A5000A202809322010C94B3168091A0028132AD
:104A600021F58091E800877F8093E8000E94682705
:104A70008091A30280935B0208958091A002813A05
:104A8000A1F48091E800877F8093E8008091E8009E
:104A900080FFFCCF80915B028093F1008091E80061
:104AA0008E778093E8000C946827089584B7877FF9
:104AB00084BF0FB6F894A8958091600088618093B8
:104AC0006000109260000FBE80E880936100109239
:104AD00061000E942C110E94B9270E941628809123
:104AE000E20084608093E20078940E94A52A0E94EC
:104AF000341188E191E00E94B91080919F028530C5
:104B000069F40E94371E80919D028823B1F30E94B0
:104B10006C1E882391F30E940E26EFCF0E94401155
:104B20000E943C0FEACF0C949525292F3327233080
:104B30003105C9F064F42130310581F022303105AE
:104B400009F04CC08BE390E025EB34E04BC0213200
:104B5000310521F12232310589F140C082E190E036
:104B600020EF34E03FC099278130910571F02CF49B
:104B7000892BA1F5E1EBF4E00DC08230910541F005
:104B8000039761F5EDE8F4E005C0EFE9F4E002C059
:104B9000E3E9F4E0849190E09F0124C06115710580
:104BA00041F061307105D1F489E090E020EE34E00D
:104BB00019C089E090E027EC34E014C0611571055C
:104BC00041F06130710551F480EC90E022E035E075
:104BD00009C080E490E022EC35E004C080E090E081
:104BE00020E030E0FA013183208308950895CF93C7
:104BF000C82F0E94F625C0935C02CF910895809142
:104C00009F02843011F081E0089582E00895809140
:104C10005C02811102C00C94FF25089580E189BDDA
:104C200082E189BD09B400FEFDCF8091D8008F7D5F
:104C30008093D8008091E00082608093E0008091B2
:104C4000E00081FDFCCF0895CF92DF92EF92FF92BA
:104C50000F931F93CF93DF93EC018B016A010E94A6
:104C60008727811133C0C114D10439F0F601808146
:104C70009181081B190BC80FD91FE12CF12C0115CC
:104C8000110519F18091E80085FD16C08091E800BA
:104C90008E778093E800C114D10449F0F601808139
:104CA0009181E80EF91EF182E08285E00FC00E943A
:104CB0008727882321F30AC089918093F10001504E
:104CC0001109FFEFEF1AFF0ADACF80E0DF91CF91F1
:104CD0001F910F91FF90EF90DF90CF90089520915A
:104CE000A6023091A7022617370748F06115710513
:104CF00039F42091E8002E772093E80001C0B90133
:104D000040E061157105A9F120919F02222309F469
:104D100043C0253009F442C02091E80023FD40C083
:104D20002091E80022FD32C02091E80020FFE9CF69
:104D30004091F3002091F20030E0342BFC01CF01D0
:104D40006115710559F02830310540F48191809347
:104D5000F100615071092F5F3F4FF1CF41E02830E2
:104D6000310509F040E02091E8002E772093E8001B
:104D7000C8CF4111C9CF0AC080919F02882361F03A
:104D8000853061F08091E80083FD0AC08091E800E1
:104D900082FFF2CF80E0089582E0089583E00895D5
:104DA00081E008952091A6023091A70226173707C7
:104DB00048F06115710539F42091E8002E772093B1
:104DC000E80001C0B901FC0120E06115710591F115
:104DD00080919F02882309F440C0853009F43FC0C8
:104DE0008091E80083FD3DC08091E80082FD2FC0E6
:104DF0008091E80080FFE9CF2091F3008091F200DC
:104E000090E0922B6115710559F08830910540F4BE
:104E100024912093F1003196615071090196F2CFEF
:104E200021E0089709F020E08091E8008E778093D8
:104E3000E800CBCF2111CCCF0AC080919F028823FC
:104E400061F0853061F08091E80083FD0AC08091B7
:104E5000E80082FFF2CF80E0089582E0089583E0C9
:104E6000089581E00895982F973058F59093E900C0
:104E7000981739F07091EC002091ED005091F000FE
:104E800003C0242F762F50E021FF19C03091EB0092
:104E90003E7F3093EB003091ED003D7F3093ED008D
:104EA0003091EB0031603093EB007093EC00209375
:104EB000ED005093F0002091EE0027FF07C09F5FA8
:104EC000D3CF8F708093E90081E0089580E008954A
:104ED0008091A00287FF11C08091E80082FD05C08B
:104EE00080919F028111F8CF11C08091E8008B77EB
:104EF0000BC080919F02882349F08091E80080FFD9
:104F0000F8CF8091E8008E778093E8000895209193
:104F1000E4003091E50095E64091EC00842F81702B
:104F200040FF22C08091E80080FD1CC080919F025C
:104F3000882391F0853091F08091EB0085FD10C0C1
:104F40004091E4005091E5004217530729F39A017C
:104F5000915011F784E0089582E0089583E0089568
:104F600081E0089580E008954091E80042FFDECF9F
:104F700008950E9427280E942F28E0EEF0E080810B
:104F800081608083E8EDF0E080818F77808319BCB9
:104F9000A7EDB0E08C918E7F8C9380818F7E808393
:104FA00010929E0208950F931F93CF93DF930E9458
:104FB00027280E942F28C8EDD0E088818F7788832A
:104FC00088818068888388818F7D888319BC10924E
:104FD0009F0210929B0210929D0210929C0200EE82
:104FE00010E0F80180818B7F8083888181608883D5
:104FF00042E060E080E00E943327E1EEF0E0808153
:105000008E7F8083E2EEF0E080818160808380810A
:1050100088608083F80180818E7F808388818061B1
:105020008883DF91CF911F910F910895E8EDF0E013
:1050300080818F7E8083E7EDF0E0808181608083D6
:1050400084E082BF81E080939E020C94D327E8ED38
:10505000F0E080818E7F80831092E20008951092AC
:10506000DA001092E10008951F920F920FB60F928E
:1050700011242F933F934F935F936F937F938F935D
:105080009F93AF93BF93EF93FF938091E10082FFD3
:105090000BC08091E20082FF07C08091E1008B7F0E
:1050A0008093E1000E94A42A8091DA0080FF1FC053
:1050B0008091D80080FF1BC08091DA008E7F8093A2
:1050C000DA008091D90080FF0DC080E189BD82E1C6
:1050D00089BD09B400FEFDCF81E080939F020E944C
:1050E0007A2405C019BC10929F020E9488248091E6
:1050F000E10080FF19C08091E20080FF15C080911F
:10510000E2008E7F8093E2008091E20080618093D4
:10511000E2008091D80080628093D80019BC85E0BD
:1051200080939F020E948C248091E10084FF30C014
:105130008091E20084FF2CC080E189BD82E189BDBD
:1051400009B400FEFDCF8091D8008F7D8093D800F8
:105150008091E1008F7E8093E1008091E2008F7E5C
:105160008093E2008091E20081608093E200809170
:105170009B02882311F084E007C08091E30087FD43
:1051800002C081E001C083E080939F020E948D24D1
:105190008091E10083FF29C08091E20083FF25C058
:1051A0008091E100877F8093E10082E080939F02FD
:1051B00010929B028091E1008E7F8093E1008091AC
:1051C000E2008E7F8093E2008091E2008061809314
:1051D000E20042E060E080E00E9433278091F0002E
:1051E00088608093F0000E948B24FF91EF91BF9123
:1051F000AF919F918F917F916F915F914F913F916F
:105200002F910F900FBE0F901F9018951F920F9225
:105210000FB60F9211242F933F934F935F936F9389
:105220007F938F939F93AF93BF93CF93DF93EF932E
:10523000FF93C091E900CF708091EC00D82FD1701E
:1052400080FDD0E81092E9008091F000877F809384
:10525000F00078940E944A291092E9008091F000B1
:1052600088608093F000CD2BCF70C093E900FF9150
:10527000EF91DF91CF91BF91AF919F918F917F91EE
:105280006F915F914F913F912F910F900FBE0F90B3
:105290001F9018951F93CF93DF93CDB7DEB7AA97D2
:1052A0000FB6F894DEBF0FBECDBFE0EAF2E088E0B3
:1052B0008E0F9091F10091938E13FBCF0E94992451
:1052C0008091E80083FF28C18091A0029091A10203
:1052D000492F50E04A30510508F01EC1FA01E55649
:1052E000FF4F0C941A2B803821F0823809F014C13A
:1052F00008C080919C0290919D02992389F0826060
:105300000FC08091A4028F70873008F005C1809390
:10531000E9008091EB0085FB882780F91092E90075
:105320009091E800977F9093E8008093F1001092AD
:10533000F100D0C0282F2D7F09F0EEC0882319F08E
:10534000823061F0E9C08091A202813009F0E4C0AE
:10535000933009F080E080939D022EC08091A202DC
:1053600081112AC08091A4028F702FEF280F263060
:1053700008F0D2C08093E9002091EB0020FF1CC010
:10538000933021F48091EB00806214C09091EB0087
:1053900090619093EB0021E030E0A90102C0440F3E
:1053A000551F8A95E2F74093EA001092EA00809137
:1053B000EB0088608093EB001092E9008091E80098
:1053C000877F8093E8000E946827A6C08111A4C04F
:1053D0001091A2021F778091E3008078812B809347
:1053E000E3008091E800877F8093E8000E946827AF
:1053F0008091E80080FFFCCF8091E300806880937B
:10540000E300111102C082E001C083E080939F029B
:1054100083C08058823008F07FC08091A2029091B2
:10542000A3028C3D53E0950779F583E08A838AE2F5
:1054300089834FB7F894DE01139620E03EE051E2F5
:10544000E32FF0E050935700E49120FF03C0E29572
:10545000EF703F5FEF708E2F90E0EA3010F0C7964C
:1054600001C0C0968D939D932F5F243149F74FBFA4
:105470008091E800877F8093E8006AE270E0CE01C7
:1054800001960E946F2615C06091A4027091A5023A
:10549000AE014F5F5F4F0E949325BC01892BE1F164
:1054A0009091E800977F9093E80089819A810E940B
:1054B000D2268091E8008B778093E8002DC0803859
:1054C00059F58091E800877F8093E80080919B02E6
:1054D0008093F1008091E8008E7773CF81111CC01A
:1054E0009091A2029230C0F48091E800877F80936F
:1054F000E80090939B020E94682780919B02811193
:1055000006C08091E30087FD02C081E001C084E015
:1055100080939F020E948F248091E80083FF0AC03D
:105520008091E800877F8093E8008091EB008062A3
:105530008093EB00AA960FB6F894DEBF0FBECDBFE6
:10554000DF91CF911F9108950895CF9380919F028D
:105550008823A1F0C091E900CF709091EC00892FD1
:10556000817090FD80E8C82B1092E9008091E800DE
:1055700083FD0E944A29CF70C093E900CF9108951E
:10558000DB018F939F930E942F2BBF91AF91A29F1E
:10559000800D911DA39F900DB29F900D1124089531
:1055A000AA1BBB1B51E107C0AA1FBB1FA617B70749
:1055B00010F0A61BB70B881F991F5A95A9F7809565
:1055C0009095BC01CD01089597FB072E16F4009429
:1055D00007D077FD09D00E94D02A07FC05D03EF401
:1055E000909581959F4F0895709561957F4F08958F
:1055F000A1E21A2EAA1BBB1BFD010DC0AA1FBB1FD7
:10560000EE1FFF1FA217B307E407F50720F0A21B48
:10561000B30BE40BF50B661F771F881F991F1A94B5
:1056200069F760957095809590959B01AC01BD01DF
:10563000CF010895EE0FFF1F0590F491E02D09941E
:10564000A29FB001B39FC001A39F700D811D1124C3
:10565000911DB29F700D811D1124911D08950E940E
:10566000202BA59F900DB49F900DA49F800D911DA0
:1056700011240895FC014150504030F0019006166D
:10568000D1F73197CF010895882799270895F9997F
:10569000FECF92BD81BDF89A992780B50895A6E105
:1056A000B0E044E050E00C94812BA8E1B0E042E08F
:1056B00050E00C94812B262FF999FECF92BD81BD2D
:1056C000F89A019700B4021639F01FBA20BD0FB640
:1056D000F894FA9AF99A0FBE08950396272F0E941C
:1056E0005C2B0E945B2B252F0E945C2B242F0C949B
:1056F0005C2B0196272F0E945C2B0C945B2BDC010A
:10570000CB01FC01F999FECF06C0F2BDE1BDF89ACC
:10571000319600B40D9241505040B8F70895F89476
:02572000FFCFB9
:10572200010210101001191A1B1C1D1E1F2021221C
:105732000B022808140A321E942333240824D2238D
:10574200972301F0F1C66766379431303534979666
:1057520033F490919293950001020202020606062A
:105762000909090909090F0F0F0F0F0F1515151850
:0C577200191919191919191919192324EA
:00000001FF
